:1000000083C12BC851C89BC19AC1B6C798C197C1BB
:1000100096C195C194C193C192C191C190C1000094
:1000200000000000000808080808000060600000E8
:10003000003C4030403C003E5149453E0000427F7C
:100040004000004261514946002141454B310018B2
:1000500014127F10002745454539003C4A49493074
:10006000000171090503003649494936000649492E
:10007000291E000036360000007C1211127C007F21
:1000800049494936003E41414122007F4141221CFD
:10009000007F49494941007F09090901003E414962
:1000A000497A007F0808087F0000417F4100002056
:1000B00040413F01007F08142241007F4040404002
:1000C000007F020C027F007F0408107F003E414148
:1000D000413E007F09090906003E4151215E007F33
:1000E000091929460046494949310001017F0101AA
:1000F000003F4040403F001F2040201F003F40384D
:10010000403F002054545478007F4844443800381D
:100110004444442000384444487F00385454541820
:1001200000087E0901020018A4A4A47C007F080432
:1001300004780000447D4000004080847D00007F02
:10014000102844000000417F4000007C041804781F
:10015000007C0804047800384444443800FC24241B
:1001600024180018242418FC007C08040408004803
:100170005454542000043F444020003C4040207C24
:10018000001C2040201C003C4030403C0044281013
:100190002844001CA0A0A07C00324959513E83DCB9
:1001A0007A3F3F7ADC8399BDDB7E7E3CE78181E745
:1001B0003C7E7EDBBD993C7ED7B5ADBFFFEDADADDE
:1001C000FFB7F5BFB7ADEDBDC3BDA5BD423C007FD8
:1001D0004155555555555555555555555555417FCD
:1001E000227F7F63221C4163466E7C7E7A3EBCFE8A
:1001F0007E3EBEBEFC7C7838383870606040001CA3
:1002000022637F7F2222223E3E7F6363221C223EA6
:100210003E7F6363221C00000000360000000000E7
:100220000000000080C0F07C06735943063C383063
:1002300030383E267B5943067CF0C0800000000029
:100240000000000000000000000078FFCF01000067
:100250003060E0C080808080808080C0C0603000DE
:10026000000001CFFE780000000000007CFE860E3A
:100270000E1C18317FFEFC1C1838383839393939D2
:1002800039393938383838181CFCFE7F39181C0EBB
:100290000EC6FE3C0001070E1C3870C0C08003076C
:1002A000FCF80000F0C0C0C0C0C0E0F00000F8FCE6
:1002B0000F0380C0E070381C0E03010004060F0F0E
:1002C00006060303036373333BFFFF7F3F38F0C031
:1002D00000F0F83F7FFFFF3B336363030303060631
:1002E0000F0F0600000000003800020202020202A6
:1002F0000202020201020408102020041008010278
:10030000000004000000000011241FBECFE5D2E071
:10031000DEBFCDBF11E0A0E6B0E0EEE7FCE102C039
:1003200005900D92A034B107D9F721E0A0E4B1E027
:1003300001C01D92A13DB207E1F7EAD69ECC60CE86
:1003400017B8369A3699FECF84B195B108958230A8
:1003500089F018F4813051F00895833019F0843019
:1003600009F008958CB58F7D8CBD08958AB58F777F
:100370008ABD08958AB58F7DFBCF1F93CF93DF93FE
:10038000EFEFF2E09491E5EFF2E0D491EBEEF2E0E2
:10039000C491CC23B1F0182F992311F0892FD7DF06
:1003A000EC2FF0E0EE0FFF1FEC51FD4FA591B49143
:1003B0008FB7F894EC91111108C0D095DE23DC932F
:1003C0008FBFDF91CF911F910895DE2BF8CFCF9390
:1003D000DF93282F30E0F901E250FD4F8491F901BD
:1003E000EC50FD4FD491F901E651FD4FC491CC235F
:1003F00099F08111ACDFEC2FF0E0EE0FFF1FEA5E09
:10040000FD4FA591B491EC91ED2381E090E009F4CA
:1004100080E0DF91CF91089580E090E0FACF3FB780
:10042000F8948091450190914601A0914701B091C7
:10043000480122B708B601FE05C02F3F19F001960A
:10044000A11DB11D3FBFBA2FA92F982F8827BC012E
:10045000CD01620F711D811D911D42E0660F771F56
:10046000881F991F4A95D1F708958F929F92AF9256
:10047000BF92CF92DF92EF92FF924B015C01CFDFF0
:100480006B017C01CCDF6C197D098E099F09683EE8
:10049000734081059105B0F321E0821A9108A1080B
:1004A000B10888EEC80E83E0D81EE11CF11C81144F
:1004B0009104A104B10431F7FF90EF90DF90CF9049
:1004C000BF90AF909F908F9008952FB7F894609150
:1004D00041017091420180914301909144012FBFED
:1004E000089508954F925F926F927F928F929F929C
:1004F000AF92BF92CF92DF92EF92FF920F931F9332
:10050000CF93DF93CDB7DEB7A4970FB6F894DEBFD5
:100510000FBECDBF8CE0E4E6F0E0DE011196019065
:100520000D928A95E1F78CE0E0E7F0E0DE011D96A0
:1005300001900D928A95E1F78091C701813009F011
:100540006FC022EF3FEF388F2F8B2AEF3FEF3E8BAC
:100550002D8B29EF3FEF3C8B2B8B912C833030F090
:1005600069E0962E873010F475E0972ECE01019643
:100570002C01BE01675E7F4F0C969B01D2014D910D
:100580005D91F901419351939F01A817B907B9F7FC
:1005900009E411E029E531E0F80111921786178E80
:1005A00017A617AEAF01415B5F4FDA011C922E1701
:1005B0003F0799F7FC015EE0E52EF12C30E020E0EA
:1005C000DB018D919D91BD0143E0742E333008F421
:1005D000712CA190B19050E040E0181619060CF073
:1005E0004BC08E159F050CF047C08130910519F462
:1005F000213009F422E0B9E06B2E343071F1672C20
:1006000031112BC0DA01A75BBE4F6D0168948824BD
:1006100082F8820E491548F5AAE08A2E820E24C07F
:10062000833008F492CF833009F493CF843009F4F7
:100630009BCF2CEF3FEF388B2F872BEF3FEF3A8B81
:10064000298B883008F48CCF2EEF3FEF3E8B2D8B1B
:100650002DEF3FEF388F2F8B83CF6801C40ED51E4F
:10066000A4E08A2E820E860CD6018C92DD24D394CF
:10067000223009F4D12C2D2D0197A816B9061CF0B3
:10068000D2018D919C914F5F5F4F4F30510509F022
:10069000A4CFAB0142505109DA018D939C933F5F87
:1006A000B2E04B0E511C81E0E81AF108005F1F4FC9
:1006B000363009F085CFA4960FB6F894DEBF0FBE92
:1006C000CDBFDF91CF911F910F91FF90EF90DF9001
:1006D000CF90BF90AF909F908F907F906F905F90E2
:1006E0004F9008958091C5019FEF980F9330B0F41B
:1006F0009091C601482F4150550B9A0144E0220FBA
:10070000331F4A95E1F7275B3E4F290F311DF90151
:100710009081911121C091E09093CA019CEF980FB4
:100720009330E8F48150990B2091C60134E0880F92
:10073000991F3A95E1F7875B9E4F820F911DFC014F
:100740002081211105C00197FC018081882339F0A7
:1007500081E08093CA0108959A30E8F6DFCF0895CA
:10076000CF92DF92EF92FF920F931F93CF93DF937D
:100770002091D00121111DC06B017C0110E000E02F
:1007800081E0FBDDD0E0C0E0CC16DD0619F0000012
:100790002196FACF80E0F1DD90E080E0C817D9071C
:1007A00019F000000196FACF0F5F1F4FE016F10617
:1007B0003CF7DF91CF911F910F91FF90EF90DF9069
:1007C000CF90089530E020E090E0AC01022E01C00F
:1007D000440F0A94EAF747FF0CC0C39AC49AC4981E
:1007E0002F5F3F4F2830310581F7C39AC49AC498D0
:1007F0000895C398F3CFEF92FF920F931F93CF9377
:10080000DF93F82EE62E8150990BEC0183E0CC0F9C
:10081000DD1F8A95E1F710E000E0C256DE4FFF20B1
:10082000B1F0FE01E00FF11FE1100EC08491CADFAC
:100830000F5F1F4F0830110591F7DF91CF911F9186
:100840000F91FF90EF90089584918095F0CF80E014
:10085000EE2069F38FEFEBCF611101C0B3CF80952C
:10086000FDCFC498C398C49AC39A0895C49AC39AF2
:10087000C398C4980895CF93DF93C82FD62FF6DF7F
:1008800088E7A0DF80E09EDF80EB8D0F9BDF8C2F61
:1008900082958F70806196DF8C2F8E70816092DFE1
:1008A000DF91CF91DECF683008F4E5CF0895DEDF29
:1008B00088E788DF80E486CF0F931F93CF93DF9381
:1008C00009EA11E0C3E060E08C2FD5DFF0DF8FEFA5
:1008D00079DF81E077DF81E075DFF80181918F01B9
:1008E000D8E0882391F060E081E085DF81E06ADF75
:1008F00081E068DF8FEF66DFB4DFC85ECB3719F7C2
:10090000DF91CF911F910F91089581E05BDFD1506E
:10091000E1F7ECCFCF93C82F862F6091C5019FEFF1
:10092000960F963088F4882301F1613011F063301E
:1009300059F48091C601880F880F880F9091C001EB
:10094000891B895FB0DF0BC08091C601880F880FBB
:10095000880F6230B9F79091BF01890F8CDFA7DF54
:1009600060E08C2F48DFCF917CCFCF910895FF922C
:100970000F931F93CF93DF931091C6010091C50190
:1009800087E08093C5018DE08093C60161E080E03F
:10099000C1DF8EE08093C60161E080E0BBDFC091E3
:1009A000B901D091BA018FE0F82E1C161D064CF447
:1009B0008F2D8C1B8093C60161E081E0ABDF219716
:1009C000F4CF0093C5011093C601DF91CF911F9121
:1009D0000F91FF9008952F923F924F925F926F92E6
:1009E0007F928F929F92AF92BF92CF92DF92EF92BF
:1009F000FF920F931F93CF93DF9300D000D0CDB71A
:100A0000DEB7582E49E4E42E41E0F42E670101E000
:100A100010E01C821B8257E0852E912C44244394C5
:100A20002B81233008F0412C602F80E03CDF3FDF3A
:100A3000B12C4B2D50E08091C001E82FF0E09401E3
:100A40002E1B3F0B42175307DCF4D6011F962C9147
:100A5000642D80E0222389F03196E40FF51F422FA8
:100A60004150550BCA0133E0880F991F3A95E1F7C1
:100A7000E80FF91FE256FE4F8491EEDEB394D9CF12
:100A8000312C8B819C8124E0880F991F2A95E1F7F6
:100A9000BC01675B7E4F7A8369838091C501482FD3
:100AA00050E06090C6014017510751F4631008C030
:100AB0009FEF980F933020F460E0852D9CDE2EC0D0
:100AC000232D30E09091CA01911152C04017510777
:100AD00009F04EC0A9014F5F5F4F6416150609F07B
:100AE00047C08450833008F043C0A12CB090C001AF
:100AF000AB1420F480E066DEA394F8CF60E0852D8F
:100B00007ADE212CC4018B1991095C012A141B0483
:100B100024F480E057DE2394F9CF33943394FEE03D
:100B2000F31508F0BACF712C8B819C81B4E0880F4B
:100B3000991FBA95E1F79C01285A3E4F59018091BF
:100B4000C0017816E8F4D501EC91642D80E0EE2325
:100B500061F0E150FF0BA3E0EE0FFF1FAA95E1F754
:100B6000E70DF11DE256FE4F849176DE7394E7CFD8
:100B7000A981BA812A0F3B1F642DF90180819ECF84
:100B800070DEEB81FC813296FC83EB830E5F1F4F9E
:100B9000F0E2CF0ED11C2B813C812630310509F0CB
:100BA0003DCF611003C061E0852DB4DE42E050E02E
:100BB0005A83498301E010E068E0862E912C77E0AB
:100BC000A72EB12C698177247394862F82508230AE
:100BD00008F0712C80E067DE6ADED12C9091BF01B5
:100BE000D916D8F4D7015F968C91811104C0672D76
:100BF00033DED394F3CFF401E91BF109ED0DF11DC0
:100C00008150990B53E0880F991F5A95E1F7E80F2F
:100C1000F91FE256FE4F8491EACF412CC80144E00F
:100C2000880F991F4A95E1F7FC01E75BFE4F6F01C2
:100C30008091C501482F50E06090C60129813A811A
:100C40004217530751F4641008C09FEF980F933078
:100C500020F460E0852DCFDD2DC0242D30E0909173
:100C6000CA0191114AC069817A814617570709F074
:100C700044C0A9014F5F5F4F64161506F1F584501B
:100C80008330D8F5312C2090BF01C501821991091C
:100C90003816190624F480E095DD3394F4CF60E033
:100CA000852DA9DD312C231421F080E08BDD3394D8
:100CB000FACF43944394BEE0B41508F0B9CF412C69
:100CC000C80134E0880F991F3A95E1F7FC01E85A12
:100CD000FE4F6F01842D90E02091BF01A501421BC2
:100CE000510984179507ECF4D601EC91E1110BC082
:100CF000672D80E0B1DD4394EDCF2C0D3D1D672DB8
:100D0000D9018C91A8CFE150FF0B23E0EE0FFF1F1C
:100D10002A95E1F7E80FF91FE256FE4F8491672DFF
:100D2000E9CF9FDD0E5F1F4FE981FA813296FA838A
:100D3000E983F0E2EF0EF11C29813A812830310578
:100D400009F040CF611019C061E0852D0F900F9020
:100D50000F900F90DF91CF911F910F91FF90EF9027
:100D6000DF90CF90BF90AF909F908F907F906F90CB
:100D70005F904F903F902F90CDCD0F900F900F90A0
:100D80000F90DF91CF911F910F91FF90EF90DF9027
:100D9000CF90BF90AF909F908F907F906F905F901B
:100DA0004F903F902F900895AF92BF92CF92DF92D5
:100DB000EF92FF920F931F93CF93DF93D82FE62EDE
:100DC0006A01F12CF601EF0DF11D8081882369F194
:100DD000C0E0803251F0C4EDC80FC03130F0CEEC2D
:100DE000C80FC93210F0C5ECC80FDF3710F0E3941C
:100DF000D0E06E2D8D2F57DD5ADD8C2F90E066E010
:100E000070E0F7D610E000E0825E9F4F5C01F501D4
:100E1000E00FF11F8491D6DC0F5F1F4F06301105E4
:100E2000B1F71FDDDA5FF394CDCFDF91CF911F9142
:100E30000F91FF90EF90DF90CF90BF90AF9008950B
:100E4000CF93C82F13DD88E7BDDC80E0BBDC8C2F9F
:100E5000B9DCCF9106CDCF93DF93C0EB8C2FF0DFC1
:100E600080E0EEDF80E1ECDF22DDD0E080E0AADC94
:100E7000DF5FD038D9F7F5DCCF5FC83B79F7DF917A
:100E8000CF910895BB9ABC9A8EEADADF80E0D8DF72
:100E900080E1D6DF80E4D4DF81E8D2DF8FECD0DFE1
:100EA00081EACEDF88ECCCDF86EACADF88EAC8DFD9
:100EB0008FE3C6DF83EDC4DF80E0C2DF85EDC0DFF6
:100EC00080E8BEDF89EDBCDF81EFBADF8AEDB8DFF5
:100ED00082E1B6DF8BEDB4DF80E4B2DF80E2B0DF29
:100EE00082E0AEDF8DE8ACDF84E1AADF84EAA8DF30
:100EF00086EAA6DF8FEAA4CF8091C40181110EC0DB
:100F000081E08093AE018093C401DFDA6093B00189
:100F10007093B1018093B2019093B3010895EF9261
:100F2000FF920F931F93CF93DF93CDB7DEB72A972E
:100F30000FB6F894DEBF0FBECDBFF82EE62ECA0165
:100F40008E010F5F1F4F2AE0F80111922A95E9F7F1
:100F50004AE0B80105D6A8016E2D8F2D25DF2A960F
:100F60000FB6F894DEBF0FBECDBFDF91CF911F91BA
:100F70000F91FF90EF9008951F920F920FB60F926E
:100F800011242F933F938F939F93AF93BF9380919F
:100F9000410190914201A0914301B09144013091EF
:100FA000400123E0230F2D3758F50196A11DB11DF7
:100FB000209340018093410190934201A09343010B
:100FC000B09344018091450190914601A091470161
:100FD000B09148010196A11DB11D809345019093E8
:100FE0004601A0934701B0934801BF91AF919F91F3
:100FF0008F913F912F910F900FBE0F901F901895DA
:1010000026E8230F0296A11DB11DD2CF1F920F9289
:101010000FB60F9211242F933F934F935F936F93CB
:101020007F938F939F93AF93BF93EF93FF93E09141
:101030006200F09163000995FF91EF91BF91AF912C
:101040009F918F917F916F915F914F913F912F91E0
:101050000F900FBE0F901F9018951F920F920FB612
:101060000F9211242F933F934F935F936F937F932E
:101070008F939F93AF93BF93EF93FF93E0916000A3
:10108000F09161000995FF91EF91BF91AF919F9110
:101090008F917F916F915F914F913F912F910F9021
:1010A0000FBE0F901F9018951F920F920FB60F92C0
:1010B00011242F933F934F935F936F937F938F935D
:1010C0009F93AF93BF93EF93FF938091C4018111DE
:1010D0000EC081E08093AF018093C401F6D9609384
:1010E000B0017093B1018093B2019093B301FF916D
:1010F000EF91BF91AF919F918F917F916F915F9190
:101100004F913F912F910F900FBE0F901F90189508
:1011100078948AB582608ABD8AB581608ABD83B7BA
:10112000826083BF83B7816083BF89B7826089BFD4
:1011300080B7826080BF80B7816080BF329A319A69
:10114000309A379A8CB580648CBD82E087BB81E091
:1011500085BB8BB780628BBF789466246A94762CAB
:10116000CAE0EC2EF12C8EDE76DE4CE750E062E039
:1011700080E01ADE4AE850E064E080E015DE61E0DD
:1011800080E079DBC0E5D0E092DB88E31BDB69DB44
:101190002197D1F763E080E06EDBC0E5D0E087DB2C
:1011A0008CE110DB5EDB2197D1F7A2E09A2E10E0F4
:1011B00000E0692D85E577DB7ADBD0E0C0E0C8018F
:1011C000845E9D4F5C01F501EC0FFD1F8491FADAFE
:1011D0002196C832D105B9F7085D1F4F42DB9394C1
:1011E00097E09912E6CF47E950E066E080E0DCDD69
:1011F00043EA50E067E080E0D7DD6CED75E080E029
:1012000090E033D942EB50E066E080E0CDDD4EEB7C
:1012100050E067E080E0C8DD58D94B015C0180E018
:10122000D6D8019709F05AC150D9681979098A09A5
:101230009B09613D7740810591058CF382E0C7D819
:10124000019709F037C160E090E080E0C4D460E02D
:1012500081E090E0C0D44DEC50E060E088E0A4DD97
:10126000C1E080E0B4D80197E1F3C11158C460ED4A
:1012700077E080E090E0F9D805DEEDDD1092CA015C
:101280001092CC011092CB0188EE93E09093C901AB
:101290008093C80181E08093C70198E09093C601D4
:1012A00097E09093C5011092C4018093C3011092FE
:1012B000C2011092C1011092C0011092BF0180932F
:1012C000BE018093BD011092BC011092BB0182E06F
:1012D00090E09093BA018093B9018CE08093B801BB
:1012E00081E090E09093B7018093B6018CE797E09E
:1012F000909361008093600085B78C7F816085BF8B
:101300008BB780648BBFEED81092A9011092AA010E
:101310001092AB011092AC011092AD01C091C301CB
:1013200060E08C2FF7DA8C2F56DB21DBC5DA409199
:10133000CB015091CC0167E070E090E080E0EFDD00
:10134000E8EE2E2EE3E03E2E44244394512CC1E0DF
:10135000D2E053E0B52E67E0A62E78E0972E80917C
:10136000B9019091BA010091CB011091CC0197FD88
:101370004DC3E091C101F091C2013196F093C201D9
:10138000E093C1012091B6013091B701243F81E083
:10139000380724F07092BA016092B901C093B50188
:1013A000C801B70143D4CB01B70140D4892B11F058
:1013B000D093B501C80164E670E038D4CB01B70121
:1013C00035D4892B29F08091B5018F5F8093B501C9
:1013D000C801B1012BD4CB01B70128D4892B29F046
:1013E0008091B5018F5F8093B5018091C801909184
:1013F000C90197FD079643E0959587954A95E1F7D2
:101400008E179F070CF0A5C02F5F3F4F3093B70199
:101410002093B6018091C0018F5F8093C0019091AD
:10142000BD01992309F45CC01092BD019091BD01EA
:10143000992329F09091BF019F5F9093BF0187305E
:1014400009F071C08091BE01882309F44CC010924C
:10145000BE018091C5017FEF780FC82ED12C60911D
:10146000BE014091C6015091CA01E9E4F1E021E0DA
:1014700030E090E080E0733008F0F8C0C216D30688
:1014800009F0F4C0019791F5662309F4F4C04E30D9
:1014900008F064C34F5F9785DF018FE01E968C9044
:1014A0001E971F968C921F97815011978111F6CF2E
:1014B0009083E1C0C091D001C11108C081E0809348
:1014C000D00140EE50E060E080E2C9CE1092D00141
:1014D0004BEE50E060E08FE167DCC3CEC0E0C1CEF0
:1014E000C093BD01A3CFC093BE01B3CF442309F481
:1014F000C5C041509081DF018FE011968C9011970B
:101500008D928150D1F7978781E090E02F5F3F4F18
:1015100070962730310509F0AECF4093C601509345
:10152000CA011092C0018091BF01873011F410925E
:10153000BF011092C2011092C101D4D88091CA019A
:10154000811107C08090C301882D45DA60E0882DA5
:10155000E1D9F6D68C3A9340ACF48091C401811164
:1015600011C0C093B4011092B7011092B601C0939C
:10157000C401ABD76093B0017093B1018093B20105
:101580009093B3018091AF01882301F19ED7AB0105
:10159000BC018091B0019091B101A091B201B091D4
:1015A000B301CC96A11DB11D84179507A607B707F7
:1015B00068F41092B7011092B6011092AF0182E068
:1015C00006D7019709F05CC0C093B4018091AE01C9
:1015D000882301F17AD7AB01BC018091B0019091D1
:1015E000B101A091B201B091B301CC96A11DB11D82
:1015F00084179507A607B70768F41092B7011092F1
:10160000B6011092AE0180E0E2D6019709F057C012
:10161000C093B4018091B401882309F421C11092D0
:10162000B4014091C701400F512F511D5093CC017F
:101630004093CB0167E070E090E080E070DC60E018
:1016400080E068D98091C501823008F4ABC1815037
:101650008093C501833009F051C08091C00184306E
:1016600008F069C08091C601815056C0892B09F4E9
:1016700041CF611110CF90E080E048CF51E03ACFE8
:1016800060E080E047D98091C501873049F49091AE
:10169000C6018091B501891748F0D093C30196CF58
:1016A0008730D8F78091C601882331F08091C60138
:1016B00081508093C601F1CFC093CA01EECF60E0A4
:1016C00080E028D98091C501873049F49091C60106
:1016D0008091B801981748F0B092C3019BCF873032
:1016E000D8F78091C6018E3030F48091C6018F5FAB
:1016F0008093C601F1CFC093CA01EECF823079F456
:101700008091BF019091C001890F9927991F05977A
:1017100094F48091C6018F5F8093C6010CC0813024
:1017200051F48091BF019091C001890F9927991FB1
:1017300005970CF497CFC093C3018091BB019091A2
:10174000BC0105970CF48CC00091C7010F5F00939A
:10175000C70110E068EC70E080E090E086D695E08C
:10176000892E1092A9011092AA011092AB01109239
:10177000AC011092AD01A0D860E273E084E190E08A
:10178000EFD768E572E084E190E0EAD760E971E0C4
:1017900084E190E0E5D7C093A901C093AA01C0936A
:1017A000AB01C093AC01C093AD0186D860E273E099
:1017B00084E190E0D5D768E572E084E190E0D0D78D
:1017C00060E971E084E190E0CBD78A948110C9CFC1
:1017D00064EF71E080E090E048D63DDB47E051E007
:1017E00061E083E2E1DA48EF50E063E083E2DCDAD3
:1017F00047E051E065E083E2D7DAA80163E070E0FA
:101800008DE490E08CDB6CED75E080E090E02DD60F
:1018100022DB8091C8019091C9018436910534F092
:10182000845691099093C9018093C8015BD61092A8
:10183000A9011092AA011092AB011092AC01109272
:10184000AD011092BC011092BB0136D890D84091E6
:10185000CB015091CC0167E070E090E080E05FDB6D
:101860008091B6019091B701892BF1F48091CA0162
:1018700081111AC05092B7014092B6011091C30174
:1018800060E0812F47D8812FA6D860E971E08EE112
:1018900090E066D76CE271E08EE190E061D768EC91
:1018A00070E08EE190E05CD71DD78091C401882361
:1018B00011F10BD6AB01BC018091B0019091B10147
:1018C000A091B201B091B30188589F4FAF4FBF4F65
:1018D00084179507A607B70770F482E078D5892B9F
:1018E00051F480E074D5892B31F42AD58D3A934098
:1018F00014F01092C4018091CA01882309F42FCDFD
:101900001091C301812F67D861E080E003D8D0E057
:10191000C0E0BE0182E390E023D7E296CA3FD10542
:10192000C1F761E0812FF6D7BE0182E390E018D7BE
:10193000E296C43F81E0D807B9F761E080E0EAD7DA
:10194000BE0182E390E00CD7E296CE3E92E0D9074A
:10195000B9F761E0812FDED7BE0182E390E000D7C6
:10196000E296C83E23E0D207B9F768E572E080E06E
:1019700090E07BD58091B9019091BA010197909345
:10198000BA018093B9018091B8018F5F8093B8014B
:101990001092CA01ECD788E08093C60187E080935B
:1019A000C501D5CC8091C001843038F48091C60146
:1019B0008F3018F48F5F8093C6018091C6016B2D24
:1019C00029D1E82FF0E0E755FE4F808181111BC03F
:1019D0008091BB019091BC0101969093BC018093D2
:1019E000BB01C083A092C5019092C60108EE13E02E
:1019F000B8018AE090E0B4D65FD704561109083CDC
:101A00001105B1F798CEC093CA0195CE90E080E061
:101A1000DAD0C82FD0E0DC2FCC27D093CF01C093F1
:101A2000CE0181E090E0CFD0C82BD093CF01C093FE
:101A3000CE011092CD01C017D10784F41093CF01CD
:101A40000093CE01602F81E090E0C5D06091CC0181
:101A500090E080E0C0D081E08093CD01FCD940E0EF
:101A600051E061E08BE0A0D941E151E062E08BE020
:101A70009BD940E051E063E08BE096D947E251E02A
:101A800065E085E291D94091CB015091CC0165E0B0
:101A900070E08BE490E043DA8091CD0181110EC0BB
:101AA00042E251E067E085E17FD94091CE0150915B
:101AB000CF0167E070E088E590E031DA68EE73E02E
:101AC00080E090E0D2D48091CD01882341F1C3D948
:101AD00040E051E061E08AE067D94EE251E063E026
:101AE0008AE062D940E051E067E08AE05DD9409148
:101AF000CE015091CF0165E070E082E390E00FDA13
:101B0000CCEBD2E0BE018EE190E02AD6E297C83C51
:101B1000D105C1F760EB74E080E090E0A6D49BD9DA
:101B20008EEA8ED9379885B7877E806185BF85B765
:101B3000806285BF85B7806285BF889585B78F7DB8
:101B400085BF85B78F7D85BF379A8FEA79D980E0C9
:101B500090E0892B09F407CB53D205CB562F9BCCB1
:101B6000BB274A3031F4992322F4BDE29095819548
:101B70009F4F01C0BB27FB015527AA27880F991F3C
:101B8000AA1FA41710F0A41B83955051B9F7A05DAC
:101B9000AA3308F0A95DA193009779F7B111B19329
:101BA0001192CB0100C0DC01FC01672F71917723FA
:101BB000E1F7329704C07C916D9370836291AE1708
:101BC000BF07C8F30895E199FECF9FBB8EBBE09A93
:101BD00099278DB30895262FE199FECF1CBA9FBB9C
:101BE0008EBB2DBB0FB6F894E29AE19A0FBE019618
:101BF00008950024552704C0080E591F880F991F07
:101C0000009729F076956795B8F37105B9F7802D9F
:101C1000952F0895991B79E004C0991F961708F035
:101C2000961B881F7A95C9F78095089597FB072E14
:101C300016F4009406D077FD08D00BD007FC05D031
:101C40003EF4909581959F4F0895709561957F4FD3
:101C50000895AA1BBB1B51E107C0AA1FBB1FA617F3
:101C6000B70710F0A61BB70B881F991F5A95A9F745
:0E1C700080959095BC01CD010895F894FFCFAA
:101C7E007102710203000200040002000200030060
:101C8E00FEFFFDFFFCFFFCFFFDFFFBFF4620522089
:101C9E004F204720472045205200616E6479206A0C
:101CAE0061636B736F6E00696E7370697265642029
:101CBE00627900776562626F67676C65732E636F1A
:101CCE006D00617274776F726B20627920007A7387
:101CDE00656E6B756E6D757361736869002D48491D
:101CEE0047482053434F52452052455345542D00EB
:101CFE002D2D204D555445202D2D002D20534F5563
:101D0E004E44204F4E202D00204C4556454C200071
:101D1E002D2D2D2D2D2D2D2D2D2D2D2D2D2D2D2DE5
:101D2E0000472041204D204520204F2056204520A1
:101D3E005200484947482053434F52453A00204EDF
:101D4E00455720484947482053434F5245200000ED
:00000001FF
