:10000000E0C0FAC0C1C3F8C0F7C074C3F5C0F4C003
:10001000F3C0F2C0F1C0F0C0EFC0EEC0EDC0000010
:1000200000000000000808080808000060600000E8
:10003000003C4030403C003E5149453E0000427F7C
:100040004000004261514946002141454B310018B2
:1000500014127F10002745454539003C4A49493074
:10006000000171090503003649494936000649492E
:10007000291E000036360000007C1211127C007F21
:1000800049494936003E41414122007F4141221CFD
:10009000007F49494941007F09090901003E414962
:1000A000497A007F0808087F0000417F4100002056
:1000B00040413F01007F08142241007F4040404002
:1000C000007F020C027F007F0408107F003E414148
:1000D000413E007F09090906003E4151215E007F33
:1000E000091929460046494949310001017F0101AA
:1000F000003F4040403F001F2040201F003F40384D
:10010000403F00631408146300070870080700618B
:1001100051494543002054545478007F48444438A2
:1001200000384444442000384444487F0038545444
:10013000541800087E0901020018A4A4A47C001C25
:10014000A0A0A07C0000447D4000004080847D0091
:10015000007F102844000000417F4000007C04180C
:100160000478007C0804047800384444443800FCD7
:10017000242424180018242418FC007C08040408F3
:1001800000485454542000043F444020003C404068
:10019000207C001C2040201C0000000036000000D5
:1001A0000000380002020202020202020202010200
:1001B00004081020200410080102000004000000C0
:1001C000000011241FBECFE5D2E0DEBFCDBF11E09D
:1001D000A0E6B0E0E6EEFAE102C005900D92A2368C
:1001E000B107D9F721E0A2E6B1E001C01D92AD3719
:1001F000B207E1F7D3D275CC03CF823089F018F47F
:10020000813051F00895833019F0843009F0089559
:100210008CB58F7D8CBD08958AB58F778ABD089582
:100220008AB58F7DFBCF1F93CF93DF93E9EBF1E08E
:100230009491EFEAF1E0D491E5EAF1E0C491CC23A6
:10024000B1F0182F992311F0892FD7DFEC2FF0E0B0
:10025000EE0FFF1FE256FE4FA591B4918FB7F894B1
:10026000EC91111108C0D095DE23DC938FBFDF9194
:10027000CF911F910895DE2BF8CFCF93DF93282FD6
:1002800030E0F901E854FE4F8491F901E255FE4F48
:10029000D491F901EC55FE4FC491CC2399F0811112
:1002A000ACDFEC2FF0E0EE0FFF1FE856FE4FA591FC
:1002B000B491EC91ED2381E090E009F480E0DF91CE
:1002C000CF91089580E090E0FACF3FB7F894809105
:1002D000630190916401A0916501B091660122B71C
:1002E00008B601FE05C02F3F19F00196A11DB11DF2
:1002F0003FBFBA2FA92F982F8827BC01CD01620FCD
:10030000711D811D911D42E0660F771F881F991F87
:100310004A95D1F708958F929F92AF92BF92CF9254
:10032000DF92EF92FF926B017C01CFDF4B015C010A
:10033000C114D104E104F104B1F0C7DF68197909EF
:100340008A099B09683E73408105910588F321E085
:10035000C21AD108E108F10888EE880E83E0981EE1
:10036000A11CB11CE5CFFF90EF90DF90CF90BF9024
:10037000AF909F908F900895CF92DF92EF92FF926F
:100380000F931F93CF93DF9320917C0121111DC008
:100390006B017C0110E000E081E045DFD0E0C0E0CF
:1003A000CC16DD0619F000002196FACF80E03BDF85
:1003B00090E080E0C817D90719F000000196FACF45
:1003C0000F5F1F4FE016F1063CF7DF91CF911F91B1
:1003D0000F91FF90EF90DF90CF90089530E020E0F4
:1003E00090E0AC01022E01C0440F0A94EAF747FFE7
:1003F0000CC0C39AC49AC4982F5F3F4F2830310570
:1004000081F7C39AC49AC4980895C398F3CF80E043
:10041000E5DF80E0E3DF80E0E1DF80E0DFDF80E058
:10042000DDDF80E0DBDF80E0D9DF80E0D7CFC4987C
:10043000C398C49AC39A0895C49AC39AC398C49897
:100440000895CF93DF93C82FD62FF6DF88E7C6DF56
:1004500080E0C4DF80EB8D0FC1DF8C2F82958F7021
:100460008061BCDF8C2F8E708160B8DFDF91CF910F
:10047000DECF683008F4E5CF0895DEDF88E7AEDF31
:1004800080E4ACCF1F93CF93DF93182FEB0177FD60
:10049000279683E0D595C7958A95E1F7677077270A
:1004A000672BB1F06C2F812FE4DFE7DF80E096DF70
:1004B00080E094DFBCDF6C2F6F5F812FDADFDDDF40
:1004C00080E08CDF80E08ADFDF91CF911F91AFCF9A
:1004D0006C2FF3CFAF92BF92CF92DF92EF92FF9249
:1004E0000F931F93CF93DF93D82FE62E6A01F12C41
:1004F000F601EF0DF11D8081882369F1C0E08032A3
:1005000051F0C4EDC80FC03130F0CEECC80FC93285
:1005100010F0C8ECC80FDF3710F0E394D0E06E2D78
:100520008D2FA7DFAADF8C2F90E066E070E0A1DAC4
:1005300010E000E0825E9F4F5C01F501E00FF11FCB
:1005400084914CDF0F5F1F4F06301105B1F76FDF4D
:10055000DA5FF394CDCFDF91CF911F910F91FF9090
:10056000EF90DF90CF90BF90AF900895CF93C82FBA
:1005700063DF88E733DF80E031DF8C2F2FDFCF911F
:1005800056CFCF93DF93C0EB8C2FF0DF80E0EEDF10
:1005900080E1ECDF72DFD0E080E020DFDF5FD03889
:1005A000D9F745DFCF5FC83B79F7DF91CF91089549
:1005B000BB9ABC9A8EEADADF80E0D8DF80E1D6DF32
:1005C00080E4D4DF81E8D2DF8FECD0DF81EACEDFB8
:1005D00088ECCCDF86EACADF88EAC8DF8FE3C6DFB3
:1005E00083EDC4DF80E0C2DF85EDC0DF80E8BEDFE1
:1005F00089EDBCDF81EFBADF8AEDB8DF82E1B6DFDB
:100600008BEDB4DF80E4B2DF80E2B0DF82E0AEDF0A
:100610008DE8ACDF84E1AADF84EAA8DF86EAA6DF02
:100620008FEAA4CF9DC8EF92FF920F931F93CF93B1
:10063000DF93CDB7DEB72A970FB6F894DEBF0FBEB3
:10064000CDBFF82EE62ECA018E010F5F1F4F2AE0A4
:10065000F80111922A95E9F74AE0B80146D8A801B5
:100660006E2D8F2D37DF2A960FB6F894DEBF0FBEA2
:10067000CDBFDF91CF911F910F91FF90EF90089523
:1006800080DF4EE650E063E080E124DF43E050E0AD
:1006900065E070E08CE390E0C6DF68EE73E080E038
:1006A00090E039DE42E050E065E070E08CE390E0FD
:1006B000BADF68EE73E080E090E02DDE41E050E0CC
:1006C00065E070E08CE390E0AEDF68EE73E080E020
:1006D00090E021DE56DF60E273E08EE190E04CDED8
:1006E00068E572E08EE190E047DE60E971E08EE15E
:1006F00090E042CE1F920F920FB60F9211242F93CB
:100700003F938F939F93AF93BF9380916701909195
:100710006801A0916901B0916A013091620123E002
:10072000230F2D3758F50196A11DB11D20936201AD
:100730008093670190936801A0936901B0936A0167
:100740008091630190916401A0916501B09166016F
:100750000196A11DB11D8093630190936401A09344
:100760006501B0936601BF91AF919F918F913F91C9
:100770002F910F900FBE0F901F90189526E8230F12
:100780000296A11DB11DD2CF1F920F920FB60F92EC
:1007900011240F900FBE0F901F901895CF93DF93E9
:1007A00000D000D000D0CDB7DEB778948AB5826093
:1007B0008ABD8AB581608ABD83B7826083BF83B7F3
:1007C000816083BF89B7826089BF80B7826080BF44
:1007D00080B7816080BF329A319A309A379A8CB54F
:1007E00080648CBD82E087BB81E085BB8BB7806273
:1007F0008BBF789413E0412E512C612C712CD8DEE4
:10080000C0DE4EE750E061E080E064DE43E950E0A6
:1008100062E080E05FDE48EA50E064E080E05ADEBB
:100820004EE750E065E080E055DE4DEB50E067E0DC
:1008300080E050DE8FB7F894C0906701D0906801D7
:10084000E0906901F0906A018FBF80E016DD0197AA
:1008500009F06BC22FB7F8948091670190916801FD
:10086000A0916901B0916A012FBF8C199D09AE0951
:10087000BF09813D9740A105B1053CF360E090E0E0
:1008800080E0D0DE61E081E090E0CCDE42ED50E03F
:1008900060E080E11FDE31E0398380E0EEDC01972B
:1008A000E1F390E080E054D791E0811101C090E045
:1008B00090937C0181E090E04BD7282F30E030937B
:1008C0007B0120937A012130310559F08350823029
:1008D00040F081E090E090937B0180937A0161E0A9
:1008E000A1DE8981811140C66CED75E080E090E069
:1008F00012DD5EDE46DE10927901109278011092D0
:1009000077011092760110927501A0E0B2E0B093E9
:100910006900A093680080E890E09093670080935E
:10092000660088EF9FEF90936500809364008CEFE2
:100930009FEF909363008093620080E490E0909337
:10094000740180937301909372018093710190936D
:10095000700180936F0190936E0180936D011092EE
:100960006C0110926B018CDE20E830E03E832D8319
:1009700000E012E0312C212C80917901811164C5B5
:10098000B2E08B2E912C3FEF231A330A82E075DC04
:10099000019709F061C08FB7F894C0906701D090BB
:1009A0006801E0906901F0906A018FBF82E065DC28
:1009B000019709F0C4C12FB7F89480916701909115
:1009C0006801A0916901B0916A012FBF8C199D093E
:1009D000AE09BF098D3D9540A105B1053CF3F090EE
:1009E0007C01F110A4C181E080937C0143EE50E0D2
:1009F00060E080E26FDDFF24F39482E03EDC01974B
:100A0000E1F3F1101EC080917A0190917B01813059
:100A1000910509F096C183E090E090937B0180936B
:100A20007A01ABE0B0E0B0936100A09360004DEFBD
:100A300050E060E084E14EDD68EE73E080E090E03D
:100A40006ADC9FDD60917C0190E080E0EBDD6091ED
:100A50007A0181E090E0E6DD80E00FDC019749F467
:100A60008091730190917401039790937401809326
:100A70007301809173019091740101968133910506
:100A80000CF087C19093740180937301809173017E
:100A90009091740197FF04C0109274011092730139
:100AA00080917A0190917B018130910521F003972B
:100AB000029708F04EC033E023163104ACF1BED5E6
:100AC000E0906B01F0906C01A2E0EA1AF10825E0D9
:100AD00030E040E050E06BD66E0D7F1D70936C01EE
:100AE00060936B0180916000909161008617970779
:100AF0003CF49C012250310930936C0120936B012E
:100B000022273327281B390B40916B0150916C0130
:100B1000421753073CF49401281B390B30936C01A6
:100B200020936B01312C212C8091660090916700FD
:100B300097FD0396959587959595879508972091AC
:100B40006B0130916C01820F931F9093720180931F
:100B500071018091710190917201C19734F080E32D
:100B600090E0909372018093710180917101909156
:100B7000720197FF04C010927201109271014091AE
:100B80006600509167009A0157FF02C02D5F3F4FEA
:100B90003595279535952795609168007091690086
:100BA0008091620090916300F901E80FF91FFF97AF
:100BB0001CF48230910544F4281B390B2730310591
:100BC0000CF4EEC097FFECC0840F951F9093670064
:100BD000809366008091640090916500680F791F92
:100BE000709369006093680080916600909167003F
:100BF00097FD0396959587959595879577FF02C004
:100C0000695F7F4F53E0759567955A95E1F76530B9
:100C100071050CF0F4C22091730130917401A901A7
:100C2000415051098417950734F04E5E5F4F4817C5
:100C300059070CF0C0C08091750190917601019622
:100C4000909376018093750188E290E0909369001B
:100C500080936800220F331F220F331F30936700E9
:100C6000209366008DE090E090936500809364008F
:100C70008091620090916300181619060CF098C0DC
:100C800082E090E090936300809362007ADC409170
:100C900077015091780164E070E08EE290E0C3DC6F
:100CA000409175015091760164E070E08EE490E02F
:100CB000BADC809175019091760107978CF5F12C43
:100CC000E12CB70182E390E057DB94E6E90EF11CDA
:100CD000A8EEEA16A3E0FA06A1F793E0E92EF12CBC
:100CE000A6DB64E08EE4ADDBC8DB91DB90DB9FDB51
:100CF0006EE571E080E090E00EDB4091750150916F
:100D0000760164E070E08EE490E08DDC6EE571E0E9
:100D100080E090E000DBB1E0EB1AF10809F7B0DC0D
:100D200010926C0110926B0127CE1982B6CD1092F1
:100D30007C014EEE50E060E087E1CCDB5ECEF12C32
:100D40005CCE8330910589F424E030E030937B0160
:100D500020937A018AE090E0909361008093600094
:100D60004CE051E060E080E166CE049709F064CE8B
:100D700081E090E090937B0180937A01ACE0B0E059
:100D8000B0936100A09360004CE151E060E080E22C
:100D900052CE20E330E0309374012093730176CE7D
:100DA000919581959109909363008093620012CF91
:100DB0008EEF9FEF67CF281739074CF08AEF9FEF30
:100DC000909363008093620087E090E0EFC1A901F7
:100DD0004D5F5F4F481759070CF4CDC18CEF9FEF63
:100DE00090936300809362002AE030E030936500C6
:100DF0002093640068E572E084E190E0BDDA6091E0
:100E00007701709178018091750190917601681B4E
:100E1000790B77FF02C06F5F7F4F75956795072E3F
:100E2000000C880B990B99D59B01AC0180917A013C
:100E300090917B010297039708F0DAC260E070E0BE
:100E400080E091E4F2D456D56230710514F462E08A
:100E500070E0072E000C880B990B5DDA6D817E81A6
:100E600077FF02C06D5F7F4F7595679575956795A4
:100E7000C80117FD0796E3E095958795EA95E1F798
:100E800001DB0091730110917401A0916F01B09189
:100E90007001BA83A9830A171B0739F19D01B7FFB7
:100EA00004C0295F3F4F3A83298389819A8153E0A7
:100EB000959587955A95E1F79A838983698180E0B2
:100EC000D8DADBDA80E08ADAB2DA69816F5F80E053
:100ED000D0DAD3DA80E082DAAADA69816E5F80E064
:100EE000C8DACBDA80E07ADAA2DA1A83098317FF4C
:100EF00004C0D8011796BA83A98329813A8143E0B7
:100F0000359527954A95E1F73A832983B22EB39414
:100F1000C801877099276981892B09F476C280E01E
:100F2000A8DAABDA28E0C22ED12CC801B601B2D5BE
:100F30007C018FEF0E2C01C0880F0A94EAF74EDA7D
:100F400076DA6B2D80E095DA98DA8FEF47DA6FDA90
:100F500069816E5F80E08DDA90DACE18DF088EE767
:100F600090E002C095958795CA94E2F737DA5FDA88
:100F70001093700100936F01009171011091720143
:100F800080916D0190916E019A83898308171907EA
:100F900031F1DC0197FF03C01796BA83A983298139
:100FA0003A8193E0359527959A95E1F73A8329831D
:100FB00069818FE75EDA61DA80E010DA38DA698118
:100FC0006F5F8FE756DA59DA80E008DA30DA698144
:100FD0006E5F8FE74EDA51DA80E000DA28DA1A83A2
:100FE000098317FF04C0C80107969A838983A981E2
:100FF000BA8183E0B595A7958A95E1F7BA83A9836D
:10100000BA2EB394C801877099276981892B09F496
:1010100008C28FE72EDA31DAF8E0CF2ED12CC801E2
:10102000B60138D57C018FEF0E2C01C0880F0A94D1
:10103000EAF7D4D9FCD96B2D8FE71BDA1EDA8FEFD4
:10104000CDD9F5D969816E5F8FE713DA16DACE183C
:10105000DF088EE790E002C095958795CA94E2F785
:10106000BDD9E5D910936E0100936D012091660002
:10107000309167003E832D83590137FF03C033E071
:10108000A30EB11CB594A794B594A79400916800E1
:1010900010916900ED80FE80F7FE03C08FE1E80E3D
:1010A000F11C75E0F594E7947A95E1F7680117FF74
:1010B00003C097E0C90ED11C63E0D594C7946A952C
:1010C000E1F7C501877099276E2D892B09F4B5C109
:1010D0008C2DCFD9D2D9C50168E070E0DBD4F82ED1
:1010E000D301C2010F2C04C0880F991FAA1FBB1F78
:1010F0000A94D2F789839A83AB83BC8389816ED9A2
:1011000089816CD994D961E06E0D8C2DB2D9B5D995
:1011100088E08F197301620104C0F594E794D794B5
:10112000C7948A95D2F78C2D59D98C2D57D97FD950
:10113000409177015091780170E060E08CE190E09F
:1011400072DA409175015091760170E060E08CE5B3
:1011500090E069DA8091770190917801079739F0F2
:101160008091750190917601079709F00CCC81E090
:101170008093790101CCA9014A5F5F4F4817590755
:101180004CF08EEF9FEF90936300809362008DE0B0
:1011900090E00CC0A901485F5F4F481759075CF009
:1011A00010926300109262008EE090E090936500D0
:1011B000809364001FCEA901455F5F4F4817590710
:1011C0002CF09092630080926200E1CF225F3F4F4B
:1011D000281739076CF084E090E0909363008093C7
:1011E0006200AAE0B0E0B0936500A093640002CE74
:1011F00026E030E03093630020936200E5CD6A374B
:1012000071050CF4FCCD2091710130917201A9019E
:10121000415051098417950734F04E5E5F4F4817CF
:1012200059070CF07CC0E0907701F09078018FEFC7
:10123000E81AF80AF0927801E092770180EC93E0E6
:101240009093690080936800220F331F220F331F91
:10125000309367002093660083EF9FEF90936500C3
:1012600080936400809162009091630018161906C3
:101270000CF052C082E090E0909363008093620093
:1012800080D9A70164E070E08EE290E0CCD9409173
:1012900075015091760164E070E08EE490E0C3D96E
:1012A000809177019091780107970CF065CBF12C34
:1012B000E12CB70182E390E05FD894E6E90EF11CDF
:1012C000A8EEEA16A3E0FA06A1F7B3E0EB2EF12CA4
:1012D00064E08EE2B6D8D1D89AD899D8A8D86EE56D
:1012E00071E080E090E017D840917701509178014B
:1012F00064E070E08EE290E096D96EE571E080E007
:1013000090E009D8B1E0EB1AF10811F710926C01E6
:1013100010926B01B5D930CB8EEF9FEFADCF281770
:1013200039077CF08AEF9FEF90936300809362000F
:1013300029EF3FEF30936500209364006CE271E089
:101340005BCDA9014D5F5F4F481759076CF08CEFDB
:101350009FEF909363008093620086EF9FEF9093DE
:10136000650080936400EACFA9014A5F5F4F481788
:1013700059076CF08EEF9FEF9093630080936200AB
:10138000A3EFBFEFB0936500A0936400D7CFA9018E
:10139000485F5F4F481759073CF010926300109266
:1013A000620082EF9FEFDBCFA901455F5F4F4817D7
:1013B00059073CF0909263008092620023EF3FEF68
:1013C000B9CF225F3F4F281739074CF084E090E0F7
:1013D0009093630080936200A6EFBFEFD3CF26E027
:1013E00030E0309363002093620089EF9FEFB7CF26
:1013F00060E070E080EA91E418D27CD26A30710536
:101400000CF027CD6AE070E024CD80E032D835D8EA
:101410008FEFE4D70CD86B2D80E02BD82ED88FEF30
:10142000A5CD8FE726D829D88FEFD8D700D86B2D38
:101430008FE71FD822D88FEF13CE8C2D1AD81DD846
:1014400083E0CCD783E072CE6D817E8177FF02C0CE
:101450006D5F7F4F7595679575956795C80117FD09
:10146000079643E0959587954A95E1F70BD86091EB
:1014700066007091670077FF02C06D5F7F4F7595C2
:10148000679575956795809168009091690097FDC3
:10149000079623E0959587952A95E1F7F3D7209154
:1014A000770130917801809175019091760149E240
:1014B00051E08217930714F047E351E063E08BE1BA
:1014C00009D845E451E064E08BE104D843E551E0FC
:1014D00065E08BE1FFD71A82198269817A8182E304
:1014E00090E04AD7A981BA81D296BA83A983A83E4F
:1014F000B34099F786E090E09A83898360E08CE1BD
:10150000A0D7BBD784D783D792D760E08CE599D793
:10151000B4D77DD77CD78BD76EE571E080E090E0C3
:10152000FAD6409177015091780170E060E08CE14B
:1015300090E079D8409175015091760170E060E0BB
:101540008CE590E070D86EE571E080E090E0E3D645
:10155000A981BA811197BA83A983AB2B79F66CEA7A
:101560007DE080E090E0D7D60CD88EEAFFD73798A0
:1015700085B7877E806185BF85B7806285BF85B767
:10158000806285BF889585B78F7D85BF85B78F7D44
:1015900085BF379A8FEAEAD780E090E0892B09F47B
:1015A0002EC92ED52CC98F929F92AF92BF92CF9207
:1015B000DF92EF92FF92CF93DF93EC016881798104
:1015C0008A819B81611571058105910521F464E291
:1015D00079ED8BE597E02DE133EF41E050E0E7D086
:1015E00049015A0127EA31E440E050E0C7D06B01DD
:1015F0007C012CEE34EF4FEF5FEFC501B401BED09C
:10160000C60ED71EE81EF91EF7FE06C081E0C81AF6
:10161000D108E10880E8F80AC882D982EA82FB8210
:10162000C701B6019F77DF91CF91FF90EF90DF90D8
:10163000CF90BF90AF909F908F9008958F929F9280
:10164000AF92BF92CF92DF92EF92FF9260916A00C9
:1016500070916B0080916C0090916D006115710527
:101660008105910521F464E279ED8BE597E02DE1A8
:1016700033EF41E050E09BD049015A0127EA31E4C1
:1016800040E050E07BD06B017C012CEE34EF4FEF5B
:101690005FEFC501B40172D0C60ED71EE81EF91E59
:1016A000F7FE06C081E0C81AD108E10880E8F80A10
:1016B000C0926A00D0926B00E0926C00F0926D00D4
:1016C000C701B6019F77FF90EF90DF90CF90BF905A
:1016D000AF909F908F90089560936A0070936B0015
:1016E00080936C0090936D000895BB274A3031F4CD
:1016F000992322F4BDE2909581959F4F01C0BB27AD
:10170000FB015527AA27880F991FAA1FA41710F0BD
:10171000A41B83955051B9F7A05DAA3308F0A95DC9
:10172000A193009779F7B111B1931192CB0100C049
:10173000DC01FC01672F71917723E1F7329704C038
:101740007C916D9370836291AE17BF07C8F30895C3
:10175000E199FECF9FBB8EBBE09A99278DB3089588
:10176000262FE199FECF1CBA9FBB8EBB2DBB0FB6B7
:10177000F894E29AE19A0FBE01960895EE27FF27AA
:10178000AA27BB2708C0A20FB31FE41FF51F220F13
:10179000331F441F551F969587957795679598F346
:1017A0007040A9F7009799F7BD01CF010895052E64
:1017B00097FB16F400940FD057FD05D014D007FC0A
:1017C00002D046F408C050954095309521953F4F82
:1017D0004F4F5F4F089590958095709561957F4F1D
:1017E0008F4F9F4F0895A1E21A2EAA1BBB1BFD012C
:1017F0000DC0AA1FBB1FEE1FFF1FA217B307E407F0
:10180000F50720F0A21BB30BE40BF50B661F771F47
:10181000881F991F1A9469F7609570958095909527
:101820009B01AC01BD01CF0108955058BB27AA27E9
:101830000ED0E5C0D6D030F0DBD020F031F49F3FA1
:1018400011F41EF4CBC00EF4E095E7FBC1C0E92F04
:10185000E7D080F3BA17620773078407950718F07B
:1018600071F49EF5FFC00EF4E0950B2EBA2FA02D5B
:101870000B01B90190010C01CA01A0011124FF273D
:10188000591B99F0593F50F4503E68F11A16F04038
:10189000A22F232F342F4427585FF3CF4695379537
:1018A0002795A795F0405395C9F77EF41F16BA0BFC
:1018B000620B730B840BBAF09150A1F0FF0FBB1FAA
:1018C000661F771F881FC2F70EC0BA0F621F731FF3
:1018D000841F48F4879577956795B795F7959E3F50
:1018E00008F0B3CF9395880F08F09927EE0F9795DE
:1018F0008795089504D06894B111B5C0089598D023
:1019000088F09F5790F0B92F9927B751A0F0D1F0E8
:10191000660F771F881F991F1AF0BA95C9F712C072
:10192000B13081F09FD0B1E008959CC0672F782F2F
:101930008827B85F39F0B93FCCF3869577956795DE
:10194000B395D9F73EF490958095709561957F4F4A
:101950008F4F9F4F0895E89409C097FB3EF49095F0
:101960008095709561957F4F8F4F9F4F9923A9F078
:10197000F92F96E9BB279395F69587957795679507
:10198000B795F111F8CFFAF4BB0F11F460FF1BC04B
:101990006F5F7F4F8F4F9F4F16C0882311F096E9DE
:1019A00011C0772321F09EE8872F762F05C066238C
:1019B00071F096E8862F70E060E02AF09A95660F45
:1019C000771F881FDAF7880F9695879597F90895FE
:1019D00097F99F6780E870E060E008959FEF80ECE2
:1019E000089500240A941616170618060906089585
:1019F00000240A9412161306140605060895092EEB
:101A00000394000C11F4882352F0BB0F40F4BF2B59
:101A100011F460FF04C06F5F7F4F8F4F9F4F089599
:101A200057FD9058440F551F59F05F3F71F047958F
:101A3000880F97FB991F61F09F3F79F08795089574
:101A4000121613061406551FF2CF4695F1DF08C093
:101A5000161617061806991FF1CF869571056105B0
:101A600008940895E894BB2766277727CB0197F958
:101A700008950024552704C0080E591F880F991F88
:101A8000009729F076956795B8F37105B9F7802D21
:101A9000952F089597FB072E16F4009406D077FD36
:101AA00008D00BD007FC05D03EF4909581959F4F50
:101AB0000895709561957F4F0895AA1BBB1B51E156
:101AC00007C0AA1FBB1FA617B70710F0A61BB70BAE
:101AD000881F991F5A95A9F780959095BC01CD0153
:061AE0000895F894FFCF09
:101AE6000C00FCFFF8FFC800F001010000002D2DDE
:101AF60020474554205245414459202D2D00202091
:101B0600202D2D2D2D2D2D2D2D2D2D2D2D2D2D2D0C
:101B16002020002020202020202020422041205468
:101B260020202020202020002020202042204F207E
:101B36004E2041204E205A204120202000202020E7
:101B4600626820616E6468206A61636B736F6E20E1
:101B560020002D2053595354454D2052455345548A
:101B6600202D002D2D204D555445202D2D002D2D99
:101B760020534F554E44204F4E202D2D002D2054DE
:101B86004F554748204D4F4445202D002D204558A0
:101B960050455254204D4F4445202D002D2D204EAA
:101BA6004F524D414C202D2D0050204C20412059A4
:101BB6002045205220310050204C204120592045FC
:101BC60020522032002020202020202020202020EB
:101BD600202000202020572049204E20532020205E
:021BE6000000FD
:00000001FF
