:10000000D7C08DC4B3C4EFC0EEC018C4ECC0EBC001
:10001000EAC0E9C0E8C0E7C0E6C0E5C0E4C000004F
:1000200000000000000808080808000060600000E8
:10003000003C4030403C003E5149453E0000427F7C
:100040004000004261514946002141454B310018B2
:1000500014127F10002745454539003C4A49493074
:10006000000171090503003649494936000649492E
:10007000291E000036360000007C1211127C007F21
:1000800049494936003E41414122007F4141221CFD
:10009000007F49494941007F09090901003E414962
:1000A000497A007F0808087F0000417F4100002056
:1000B00040413F01007F08142241007F4040404002
:1000C000007F020C027F007F0408107F003E414148
:1000D000413E007F09090906003E4151215E007F33
:1000E000091929460046494949310001017F0101AA
:1000F000003F4040403F001F2040201F003F40384D
:10010000403F002054545478007F4844443800381D
:100110004444442000384444487F00385454541820
:10012000007F080404780018A4A4A47C001CA0A0EC
:10013000A07C0000447D4000004080847D00007F62
:10014000102844000000417F4000007C041804781F
:10015000007C0804047800384444443800FC24241B
:1001600024180018242418FC007C08040408004803
:100170005454542000043F444020003C4040207C24
:10018000001C2040201C0000000036000000000081
:100190003800020202020202020202020102040804
:1001A00010202004100801020000040000000000DC
:1001B00011241FBECFE5D2E0DEBFCDBF11E0A0E627
:1001C000B0E0E2EEFBE102C005900D92A837B10766
:1001D000D9F721E0A8E7B1E001C01D92A43EB20723
:1001E000E1F7CED3FCCC0CCF17B8369A3699FECFB8
:1001F00084B195B1089581E08093E10185E0809319
:10020000E2010895823089F018F4813051F00895A8
:10021000833019F0843009F008958CB58F7D8CBD42
:1002200008958AB58F778ABD08958AB58F7DFBCFF3
:100230001F93CF93DF93E7EAF1E09491EDE9F1E0CA
:10024000D491E3E9F1E0C491CC23B1F0182F9923C4
:1002500011F0892FD7DFEC2FF0E0EE0FFF1FE457EE
:10026000FE4FA591B4918FB7F894EC91111108C08D
:10027000D095DE23DC938FBFDF91CF911F9108953E
:10028000DE2BF8CFCF93DF93282F30E0F901EA552A
:10029000FE4F8491F901E456FE4FD491F901EE56D8
:1002A000FE4FC491CC2399F08111ACDFEC2FF0E02C
:1002B000EE0FFF1FEA57FE4FA591B491EC91ED238D
:1002C00081E090E009F480E0DF91CF91089580E033
:1002D00090E0FACF3FB7F89480917B0190917C0138
:1002E000A0917D01B0917E0122B708B601FE05C044
:1002F0002F3F19F00196A11DB11D3FBFBA2FA92FA5
:10030000982F8827BC01CD01620F711D811D911DA1
:1003100042E0660F771F881F991F4A95D1F708950D
:100320008F929F92AF92BF92CF92DF92EF92FF9205
:100330004B015C01CFDF6B017C01CCDF6C197D09C7
:100340008E099F09683E734081059105B0F321E055
:10035000821A9108A108B10888EEC80E83E0D81E61
:10036000E11CF11C81149104A104B10431F7FF9048
:10037000EF90DF90CF90BF90AF909F908F900895B7
:100380000895E0ECF1E0119281E0E03DF807D9F743
:10039000E0EDF1E0119281E0E03EF807D9F720911D
:1003A000610030916200B9016B5F7F4FE6EDF1E0D3
:1003B00086E090E041E0681779071CF041930196D0
:1003C000FACFE0ECF1E081E0AF01405C5140421730
:1003D000530714F48193F8CF0895EF92FF920F938F
:1003E0001F93CF93DF932091BF0121111DC0EB011B
:1003F0007C0110E000E081E01BDF90E080E08C17E2
:100400009D071CF400000196FACF80E011DF90E018
:1004100080E08C179D071CF400000196FACF0F5F57
:100420001F4FE016F1063CF7DF91CF911F910F911E
:10043000FF90EF90089530E020E090E0AC01022EB4
:1004400001C0440F0A94EAF747FF0CC0C39AC49A4C
:10045000C4982F5F3F4F2830310581F7C39AC49A63
:10046000C4980895C398F3CF4F925F926F927F9292
:100470008F929F92AF92BF92CF92DF92EF92FF92B4
:100480001F93CF93DF9300D000D000D0CDB7DEB75D
:100490008E83E091E301F0E0ED57FF4F20812D8343
:1004A000822F8C7090E0B0E0A0E09C01AD010E8046
:1004B00004C0220F331F441F551F0A94D2F729830B
:1004C0003A834B835C838981B6DF8D818E7590E0A2
:1004D000B0E0A0E04C015D010E8004C0880C991CC6
:1004E000AA1CBB1C0A94D2F7882DA5DF8D818779C1
:1004F00090E0B0E0A0E02C013D010E8004C0440C6F
:10050000551C661C771C0A94D2F7842D94DF3D811C
:100510003375C32ED12CF12CE12C0E8004C0CC0CF1
:10052000DD1CEE1CFF1C0A94D2F78C2D84DF8C2D71
:1005300082DF842D80DF882D7EDF89817CDF8091C2
:10054000E201882331F144E00E8001C0440F0A9497
:10055000EAF7498319E189816EDF1150E1F785E1FE
:1005600090E09C010E8002C0220F331F0A94E2F734
:100570003A83298389815FDF89815DDF8091E10191
:10058000882329F064E670E082E390E026DF109291
:10059000E10126960FB6F894DEBF0FBECDBFDF9106
:1005A000CF911F91FF90EF90DF90CF90BF90AF90D1
:1005B0009F908F907F906F905F904F900895C49818
:1005C000C398C49AC39A0895C49AC39AC398C49806
:1005D0000895CF93DF93C82FD62FF6DF88E72BDF60
:1005E00080E029DF80EB8D0F26DF8C2F82958F70C6
:1005F000806121DF8C2F8E7081601DDFDF91CF91B4
:10060000DECFE2DF88E717DF80E415CFAF92BF923D
:10061000CF92DF92EF92FF920F931F93CF93DF93CE
:10062000D82FE62E6A01F12CF601EF0DF11D808125
:10063000882369F1C0E0803251F0C4EDC80FC031A9
:1006400030F0CEECC80FC93210F0C5ECC80FDF3760
:1006500010F0E394D0E06E2D8D2FBBDFD2DF8C2F16
:1006600090E066E070E083DA10E000E0825E9F4F89
:100670005C01F501E00FF11F8491DDDE0F5F1F4F7C
:1006800006301105B1F79BDFDA5FF394CDCFDF9130
:10069000CF911F910F91FF90EF90DF90CF90BF907F
:1006A000AF900895CF93C82F8FDF88E7C4DE80E036
:1006B000C2DE8C2FC0DECF9182CFCF93DF93C0EB11
:1006C0008C2FF0DF80E0EEDF80E1ECDF9ADFD0E01E
:1006D00080E0B1DEDF5FD038D9F771DFCF5FC83B94
:1006E00079F7DF91CF910895BB9ABC9A8EEADADF51
:1006F00080E0D8DF80E1D6DF80E4D4DF81E8D2DF9C
:100700008FECD0DF81EACEDF88ECCCDF86EACADF6F
:1007100088EAC8DF8FE3C6DF83EDC4DF80E0C2DF95
:1007200085EDC0DF80E8BEDF89EDBCDF81EFBADF99
:100730008AEDB8DF82E1B6DF8BEDB4DF80E4B2DFB3
:1007400080E2B0DF82E0AEDF8DE8ACDF84E1AADFDB
:1007500084EAA8DF86EAA6DF8FEAA4CF80E06BDE1A
:1007600080E069DE80E067DE80E065DE80E063DEF9
:1007700080E061DE80E05FDE80E05DCE0F931F935E
:10078000CF93DF938C0180E024DF3BDF84E0000F18
:10079000111F8A95E1F7D0E0C0E0FE01E00FF11FE4
:1007A000E054FE4F80818823C9F080E044DE8EE76C
:1007B00042DE8EE740DE8EE73EDE8EE73CDE8EE7F1
:1007C0003ADE8EE738DE80E036DE2196C031D10594
:1007D00021F7DF91CF911F910F91F1CEBFDFF5CFC0
:1007E00061C9EF92FF920F931F93CF93DF93CDB721
:1007F000DEB72A970FB6F894DEBF0FBECDBFF82E36
:10080000E62ECA018E010F5F1F4F2AE0F8011192F8
:100810002A95E9F74AE0B8010AD9A8016E2D8F2D73
:10082000F5DE2A960FB6F894DEBF0FBECDBFDF917E
:10083000CF911F910F91FF90EF9008951F920F920B
:100840000FB60F9211242F933F938F939F93AF93E3
:10085000BF9380917F0190918001A0918101B0911F
:10086000820130917A0123E0230F2D3758F501964C
:10087000A11DB11D20937A0180937F019093800187
:10088000A0938101B093820180917B0190917C01C2
:10089000A0917D01B0917E010196A11DB11D8093B3
:1008A0007B0190937C01A0937D01B0937E01BF9169
:1008B000AF919F918F913F912F910F900FBE0F900D
:1008C0001F90189526E8230F0296A11DB11DD2CFC7
:1008D0001F920F920FB60F9211242F933F934F93B5
:1008E0005F936F937F938F939F93AF93BF93EF9398
:1008F000FF93E0916800F09169000995FF91EF91F5
:10090000BF91AF919F918F917F916F915F914F9127
:100910003F912F910F900FBE0F901F9018951F922F
:100920000F920FB60F9211242F933F934F935F9323
:100930006F937F938F939F93AF93BF93EF93FF93A7
:10094000E0916600F09167000995FF91EF91BF91EA
:10095000AF919F918F917F916F915F914F913F9157
:100960002F910F900FBE0F901F9018951F920F920E
:100970000FB60F9211240F900FBE0F901F90189575
:10098000CF93DF9300D000D000D0CDB7DEB77894FE
:100990008AB582608ABD8AB581608ABD83B782606C
:1009A00083BF83B7816083BF89B7826089BF80B707
:1009B000826080BF80B7816080BF329A319A309A5E
:1009C000379A8CB580648CBD82E087BB81E085BBA3
:1009D0008BB780628BBF789481E08093E00182E0E6
:1009E00051DC019711F41092E0017EDE66DE809109
:1009F000E00181114CC02EE12D8367E0C62ED12C81
:100A0000E12CF12C7FE7872E912CA12CB12C00E852
:100A100010E0B6D72B013C01B3D769837A838B836F
:100A20009C83C301B201A701960163D86E836981DB
:100A30007A818B819C81A50194015BD8862F6E8180
:100A4000C8DDDFDD9DD7A701960153D8C80102C0DC
:100A5000959587956A95E2F7EEDCB1DD9D81915021
:100A60009D839111D6CF4EEA50E062E08EE0CEDD5C
:100A70004FEB50E064E083E0C9DD44ED50E066E018
:100A800081E1C4DD4FE950E067E086E145C0E0EC7C
:100A9000F1E080ED91E011928E179F07E1F731E0D0
:100AA0003093CE0162E070E090E080E067DE41E0EC
:100AB0004093CD0163E070E090E080E05FDE51E0C4
:100AC0005093CF0164E070E090E080E057DE65E095
:100AD00070E090E080E052DE81E08093CC0166E03F
:100AE00070E090E080E04ADE67E070E090E080E057
:100AF00045DE45E850E062E080E088DD47EC50E00C
:100B000064E080E083DD43E950E066E080E07EDD84
:100B10004FE950E067E080E079DD8FB7F894C0904E
:100B20007F01D0908001E0908101F09082018FBF21
:100B300080E0A8DB019709F078C12FB7F894809185
:100B40007F0190918001A0918101B09182012FBF1E
:100B50008C199D09AE09BF09813D9740A105B105DA
:100B60003CF382E08FDB019709F047C160E090E041
:100B700080E036DE60E081E090E032DE60E082E03E
:100B800090E02EDE60E083E090E02ADE45EE50E06B
:100B900060E088E03BDDF1E0F98380E073DB019702
:100BA000E1F349814111FCC268E27AE080E090E023
:100BB000B7DB9ADD82DD1092BE011092BD0110926A
:100BC000BC018091E001882309F409C310928C01D3
:100BD00010928B0110928A011092890181E090E0BD
:100BE00090936500809364008093630026E030E07A
:100BF00030938801209387011092BB011092BA01B3
:100C00001092E101309362002093610010928601FE
:100C100010928501109284011092830180936000EC
:100C2000B0DB67E070E081E090E0A8DD90ED492E58
:100C300091E0592E2DE0622E712C3FEC832E31E095
:100C4000932E40ECA42E41E0B42E54E0C52ED12CBE
:100C50008091BE018111F5C101E011E085E0282EEF
:100C6000312C8091890190918A01019690938A019B
:100C7000809389014091BC015091BD0167E070E013
:100C800090E080E0AEDD20918501222349F0809143
:100C90008301909184010196909384018093830154
:100CA00080918301909184010A9744F0222331F0CE
:100CB00010928501109286011092E10182E0E2DA41
:100CC000019731F482E0DEDA0197E1F31093E1015C
:100CD00080E0D8DA019731F480E0D4DA0197E1F3CB
:100CE0001093E10181DA8C3A934034F47DDA8C3A46
:100CF0009340E4F31093E101E0908701F0908801C4
:100D0000B70190E080E03ADD80918601811193C0C7
:100D10008091E101882309F48EC080916100909157
:100D2000620010928C0110928B01E0ECF1E01A82CB
:100D300019822089222351F02081222309F477C0CF
:100D400029813A812F5F3F4F3A83298331964E168E
:100D50005F0679F749815A815093620040936100A0
:100D60004817590714F410926000B70181E090E031
:100D700005DD51E0E51AF108F0928801E092870163
:100D800089819A81892B99F027E030E02E193F095B
:100D90008091BC019091BD01820F931F9093BD0182
:100DA0008093BC016CE271E082E390E016DB10936B
:100DB00086011092E1011092840110928301109338
:100DC0008501F7FC38C0E0ECF1E0CF01805C914098
:100DD00029813A818217930764F120543E4F3A8368
:100DE000298389819A81805C9140409724F5E9812B
:100DF000FA811192FA83E983F4CF2091BF0129830C
:100E000021110BC081E08093BF0148EF50E060E00A
:100E100080E2FCDB31E03983C0CE1092BF0143E0B9
:100E200051E060E087E1F2DBB8CE1982B6CE108ADD
:100E30008DCF0193CACF20916400309165003A8331
:100E40002983C301821B930B8430910514F484E041
:100E500090E02091890130918A0128173907FCF030
:100E600010928A011092890180916300882309F40D
:100E7000BBC08091CF01882309F4ACC080918B0165
:100E800090918C01019690938C0180938B014597F2
:100E900024F081E08093BE01DBCE1092630080914C
:100EA000610090916200892BA1F38091870190915C
:100EB000880197FFD6CE49815A8186E090E046307E
:100EC00051050CF4B9C089819A8109970CF09DC035
:100ED000309262002092610010928401109283018E
:100EE000109286011092850110928A011092890158
:100EF00086E090E09093880180938701E981FA81F0
:100F00003196FA83E983F0936500E0936400D5DBC2
:100F10004AE351E061E080E179DB42E151E062E0E7
:100F200080E174DB4AE351E063E080E16FDB8091B4
:100F300060008823A1F04EE151E065E089E166DBC5
:100F40004CE251E067E089E161DB8091BC01909166
:100F5000BD018C599F4F9093BD018093BC01498185
:100F60005A8162E070E085E590E03BDC60E273E08E
:100F70008EE190E032DA68E572E08EE190E02DDA01
:100F800060E971E08EE190E028DA6CED75E080E0D8
:100F900090E0C6D992DB1093630010936000F1D902
:100FA0001092E10167E070E081E090E0E7DB2CEB7C
:100FB00032E03A83298369817A818EE190E00DDA0B
:100FC00049815A81445651095A834983443651050F
:100FD00091F747CEEFECF1E082918183AE16BF0628
:100FE000D9F71092C0015BCF8091C001882319F01E
:100FF0001093630054CFE0ECF1E0818181938E1671
:101000009F06D9F71092CF014ACFE981FA813C9728
:101010002CF4D0926200C09261005ECF29813A81A7
:101020002F3031053CF443E050E050936200409390
:10103000610052CF82E090E0909362008093610063
:101040004BCF82E090E026D5E82FF0E03E2F22271C
:101050003A8329833093BB012093BA0183E090E067
:1010600019D549815A81482B5093BB014093BA014D
:101070006091BC017091BD01461757077CF47093D5
:10108000BB016093BA0183E090E0AADB6091BD01EF
:1010900082E090E0A5DB81E08093B5018091BA0108
:1010A0009091BB019093B9018093B80106DB48E3AE
:1010B00051E061E08BE0AADA49E451E062E08BE0C4
:1010C000A5DA48E351E063E08BE0A0DA4FE551E0B8
:1010D00065E085E29BDA4091BC015091BD0165E07D
:1010E00070E08BE490E07DDB8091B50181110EC052
:1010F0004AE551E067E085E189DA4091B801509115
:10110000B90167E070E088E590E06BDB1A82198234
:1011100069817A8182E390E060D989819A81C2965F
:101120009A838983883E934099F760ED77E080E069
:1011300090E0F6D88091B501882391F1BEDA48E3BA
:1011400051E061E08AE062DA46E651E063E08AE07D
:101150005DDA48E351E067E08AE058DA4091B8018F
:101160005091B90165E070E082E390E03ADB2CEB4E
:1011700032E03A83298369817A818EE190E02DD92A
:1011800049815A81425351095A834983483C510548
:1011900091F71092B5016CE87AE080E090E0C0D859
:1011A0008CDA8EEA7FDA379885B7877E806185BFD3
:1011B00085B7806285BF85B7806285BF889585B712
:1011C0008F7D85BF85B78F7D85BF379A8FEA6ADAB5
:1011D00080E090E0892B09F4FFCB12D7FDCB109271
:1011E000E10183E080937E0082E080937D00EBE666
:1011F000F0E0ACEAB1E08EEC9FEF819391931D9209
:1012000050E0ED37F507C9F71092AB011092AA0133
:101210001092A90110E000E08091BE01811127C366
:10122000E3D78C3A93400CF048C00115110541F406
:1012300081E08093E10185E08093E20101E010E02C
:101240008BEF90E0909367008093660085B7836092
:1012500085BF8BB780648BBF2091BC013091BD01ED
:10126000243FF1E03F0764F5C9016EEC7FEF90D4B5
:10127000655F6093A80180917E00853040F4C901CC
:10128000889666E470E084D46F5F60937E0060911E
:101290007E0070E080E89EE37BD4CB01880F991F2D
:1012A000880F991F05970197F1F7C9016CE97FEF46
:1012B0006FD4645C60936A0007C010E000E0C0CFA8
:1012C000203D47E034078CF38091E101882331F021
:1012D000215031093093BD012093BC018091E2017E
:1012E000882319F081508093E20183E090E09A8393
:1012F0008983FF24F39480E0C5D70197B9F48091E6
:10130000A901882399F081508093A901F092E3010B
:1013100070E060E081E090E060D832D322E030E01D
:1013200040E050E0E6D381E090E057D8E981FA81CF
:101330003197FA83E983EF2BF1F620917D008091BC
:10134000AA019091AB01820F911D9093AB01809304
:10135000AA01D12CCC24C39480917E00D81608F029
:10136000D7C02D2D30E03A8329837901EE0CFF1C84
:10137000F701E559FF4F808191818138910508F08F
:101380003DC020917D00821B910991838083E9817A
:10139000FA81E156FE4F2081222381F1849774F572
:1013A000A981BA81A455BE4F4C918091A9014817DB
:1013B00028F590E00596D701A357BE4F2D913C919B
:1013C000240F311D82179307CCF48091E20188230A
:1013D000A9F010828091BC019091BD010596909377
:1013E000BD018093BC01F0E9AF2EB12CB50181E0C5
:1013F00090E0F3D731E0A31AB108C1F7A70145592E
:101400005F4F5A01FA018081918105970CF072C0FB
:101410004090AA015090AB01052C000C660877089B
:10142000AFD226E430E040E050E063D3625E7F4F0D
:101430008F4F9F4F46165706680679060CF45AC020
:101440002BE730E0F5013183208380906A00912CF6
:10145000B12CA12C89E190E0A0E0B0E03AE1831644
:101460009104A104B1046CF08BD2A501940129511F
:101470003109410951093DD3DC01CB014996A11D38
:10148000B11DF701E357FE4F91838083E0E4EE2E18
:10149000F12CE81AF90A60E01E141F0434F470D22B
:1014A0009701FF0C440B550B24D3E981FA81E455D5
:1014B000FE4F60838090A801912CB12CA12C498112
:1014C0005A8141565E4F5A83498381149104A10485
:1014D000B10491F4E981FA81C0821092AB011092BB
:1014E000AA018091BC019091BD0101969093BD012C
:1014F0008093BC01D39430CF43D2A5019401F9D29B
:10150000672B682B692B31F3E981FA811082E5CFD3
:10151000F090E201F11007C08091A901883318F41E
:101520008F5F8093A9011982F091A901F695F69534
:10153000F695FD832981F21739F0622F80E049D8B2
:1015400060D80CD90BD93BD839813F5F398338300B
:1015500059F76D8180E13DD854D8F11009C04FE1B1
:10156000498380E068D75981515059835111F9CF8F
:1015700026D8F12CEE24E39480917E00F81608F032
:10158000C1C08F2D90E09A8389839C01220F331F65
:10159000F901E559FF4F80819181AC014B5F5F4FAD
:1015A0004638510508F09AC009970797E8F4E98191
:1015B000FA81E455FE4F60818091A901861790F071
:1015C00090E00496F901E357FE4F40815181460FA8
:1015D000511D8417950734F4E981FA81E156FE4FD5
:1015E00080818111E092BE01D12CC12CF901E55915
:1015F000FF4F2F0149815A8144555E4F3A01C9017D
:1016000083579E4F5C01E981FA81E156FE4FFA83D0
:10161000E983F201808091806C2D882DDAD7F1D793
:10162000F1E08F1A910896012F5F3F4F69013FE764
:101630008316910408F04DC0A60163E0440F551FC6
:101640006A95E1F7F301208130E0CA01821B930B18
:1016500089309105D4F488248A94912C02C0959401
:1016600087948A95E2F7E981FA813080332011F07E
:101670002AEA322E882DDFD6832D86958829DBD65F
:10168000832D8829D8D6882D1EC0BA0168507109CB
:10169000F50180819181820F931F6217730704F116
:1016A000841795070CF415C1E981FA81908099207F
:1016B00011F04AEA942E80E0BED6892D8695BBD6DD
:1016C000892DB9D680E0B7D680E0B5D680E0B3D614
:1016D00076D7F8E0CF16D10409F09BCFF3944CCF26
:1016E000861797070CF4F9C0481759070CF4F5C092
:1016F0008770992788248A94912C01C0880C8A9538
:10170000EAF7B1CF2091A9012D83277029833D816C
:101710003695369536953D83222309F4A1C0632F73
:1017200088E057D76ED789819FD649D76D816F5F83
:1017300088E04FD766D7E091E301F0E0ED57FF4F27
:1017400040814E8388E05981851B8D83842F8C7066
:1017500090E0B0E0A0E09C01AD010D8004C0559583
:101760004795379527950A94D2F729833A834B8377
:101770005C83898160D68E818E7590E0B0E0A0E0B8
:101780004C015D010D8004C0B594A7949794879493
:101790000A94D2F7882D4FD68E81877990E0B0E0F9
:1017A000A0E02C013D010D8004C07594679457940E
:1017B00047940A94D2F7842D3ED63E813375C32ECA
:1017C000D12CF12CE12C0D8004C0F594E794D79432
:1017D000C7940A94D2F78C2D2ED68C2D2CD6842D1E
:1017E0002AD6882D28D6898126D68091E2018823A1
:1017F00051F184E090E00D8002C0959587950A94A0
:10180000E2F7898399E1F92E898115D6FA94F110CE
:10181000FBCF85E190E0AC010D8002C05595479566
:101820000A94E2F75A834983898105D6898103D6D0
:101830008091E101882329F064E670E082E390E082
:10184000CCD51092E101BBD64091BC015091BD01B5
:1018500070E060E08CE590E0C4D71092E301DCCC4E
:101860006D8188E0B6D6CDD680E0FED5ECCF90E095
:1018700080E010D1E82FF0E03E2F22273A83298321
:101880003093B7012093B60181E090E003D1498104
:101890005A81482B5093B7014093B6016091BC0127
:1018A0007091BD01461757077CF47093B7016093A0
:1018B000B60181E090E094D76091BD0190E080E0B6
:1018C0008FD781E08093B5018091B6019091B701E7
:1018D000E9CB861797070CF00BCF8FEFACD58FEFC6
:1018E000AAD58FEFA8D58FEFEECE8F929F92AF92B1
:1018F000BF92CF92DF92EF92FF92CF93DF93EC01F2
:10190000688179818A819B816115710581059105C5
:1019100021F464E279ED8BE597E02DE133EF41E0CE
:1019200050E0E7D049015A0127EA31E440E050E0B5
:10193000C7D06B017C012CEE34EF4FEF5FEFC50198
:10194000B401BED0C60ED71EE81EF91EF7FE06C0B3
:1019500081E0C81AD108E10880E8F80AC882D98273
:10196000EA82FB82C701B6019F77DF91CF91FF909A
:10197000EF90DF90CF90BF90AF909F908F900895A1
:101980008F929F92AF92BF92CF92DF92EF92FF928F
:1019900060917F0070918000809181009091820021
:1019A000611571058105910521F464E279ED8BE5FE
:1019B00097E02DE133EF41E050E09BD049015A011F
:1019C00027EA31E440E050E07BD06B017C012CEE53
:1019D00034EF4FEF5FEFC501B40172D0C60ED71ED2
:1019E000E81EF91EF7FE06C081E0C81AD108E1081A
:1019F00080E8F80AC0927F00D0928000E0928100D7
:101A0000F0928200C701B6019F77FF90EF90DF90C0
:101A1000CF90BF90AF909F908F90089560937F007C
:101A20007093800080938100909382000895BB277B
:101A30004A3031F4992322F4BDE2909581959F4F6D
:101A400001C0BB27FB015527AA27880F991FAA1F92
:101A5000A41710F0A41B83955051B9F7A05DAA33C9
:101A600008F0A95DA193009779F7B111B193119294
:101A7000CB0100C0DC01FC01672F71917723E1F7F6
:101A8000329704C07C916D9370836291AE17BF074B
:101A9000C8F30895E199FECF9FBB8EBBE09A9927CA
:101AA0008DB30895262FE199FECF1CBA9FBB8EBB44
:101AB0002DBB0FB6F894E29AE19A0FBE01960895F5
:101AC000EE27FF27AA27BB2708C0A20FB31FE41FDA
:101AD000F51F220F331F441F551F96958795779545
:101AE000679598F37040A9F7009799F7BD01CF016A
:101AF0000895052E97FB16F400940FD057FD05D0DE
:101B000014D007FC02D046F408C05095409530959B
:101B100021953F4F4F4F5F4F089590958095709559
:101B200061957F4F8F4F9F4F0895A1E21A2EAA1BF8
:101B3000BB1BFD010DC0AA1FBB1FEE1FFF1FA2177D
:101B4000B307E407F50720F0A21BB30BE40BF50B7A
:101B5000661F771F881F991F1A9469F76095709503
:101B6000809590959B01AC01BD01CF0108950024A3
:101B7000552704C0080E591F880F991F009729F098
:101B800076956795B8F37105B9F7802D952F08956F
:101B900097FB072E16F4009406D077FD08D00BD0E3
:101BA00007FC05D03EF4909581959F4F0895709560
:101BB00061957F4F0895AA1BBB1B51E107C0AA1F67
:101BC000BB1FA617B70710F0A61BB70B881F991FDE
:101BD0005A95A9F780959095BC01CD010895F89488
:021BE000FFCF35
:101BE200010600010100C001C0013CCEFFCEFFCEC4
:101BF200FFCEFFCEFFCEFFCEFFCEFFCEFF02010112
:101C02000000003FFF53205420412043204B204539
:101C1200205200696E737069726564206268002FD9
:101C22006562626F67676C65732E636F6D00552026
:101C320046204F20204320482041204F2053006D52
:101C42006F647320626820616E6468206A61636BEE
:101C5200736F6E006F726967696E616C2067616D88
:101C620065206268002D484947482053434F52453A
:101C72002052455345542D002D2D204D55544520BD
:101C82002D2D002D2D20534F554E44204F4E202DEB
:101C92002D00204C204520562045204C2000504548
:101CA2005246454354204C4556454C002020313085
:101CB2003020424F4E5553002D2D2D2D2D2D2D2DE3
:101CC2002D2D2D2D2D2D2D2D00472041204D204530
:101CD20020204F2056204520520048494748205393
:101CE200434F52453A00204E455720484947482025
:081CF20053434F52452000004E
:00000001FF
