:1000000037C151C1CAC44FC14EC17DC44CC14BC1DF
:100010004AC149C148C147C146C145C144C10000A8
:10002000000000000000002F000000000700070093
:1000300000147F147F1400242A7F2A1200626408AF
:10004000132300364955225000000503000000002C
:100050001C224100000041221C000014083E08142C
:100060000008083E0808000000A06000000808081A
:100070000808000060600000002010080402003E34
:100080005149453E0000427F4000004261514946CF
:10009000002141454B31001814127F1000274545BF
:1000A0004539003C4A4949300001710905030036D1
:1000B0004949493600064949291E000036360000E4
:1000C00000005636000000081422410000141414E9
:1000D00014140000412214080002015109060032E4
:1000E0004959513E007C1211127C007F4949493622
:1000F000003E41414122007F4141221C007F49498D
:100100004941007F09090901003E4149497A007FC0
:100110000808087F0000417F4100002040413F0166
:10012000007F08142241007F40404040007F020CC5
:10013000027F007F0408107F003E4141413E007F66
:1001400009090906003E4151215E007F091929462F
:100150000046494949310001017F0101003F40400B
:10016000403F001F2040201F003F4038403F0063B9
:1001700014081463000708700807006151494543DB
:1001800000007F41410000552A552A550000414199
:100190007F00000402010204004040404040000093
:1001A00001020400002054545478007F484444382D
:1001B00000384444442000384444487F00385454B4
:1001C000541800087E0901020018A4A4A47C007F32
:1001D000080404780000447D4000004080847D00D5
:1001E000007F102844000000417F4000007C04187C
:1001F0000478007C0804047800384444443800FC47
:10020000242424180018242418FC007C0804040862
:1002100000485454542000043F444020003C4040D7
:10022000207C001C2040201C003C4030403C00440E
:1002300028102844001CA0A0A07C004464544C4416
:100240001414141414140000000036000000000000
:100250003800020202020202020202020102040843
:10026000102020041008010200000400000000001B
:1002700011241FBECFE5D2E0DEBFCDBF11E0A0E666
:10028000B0E0E6ECF3E102C005900D92A433B107B3
:10029000D9F721E0A4E3B1E001C01D92A63DB20769
:1002A000E1F78FD38EC8ACCE823089F018F481305C
:1002B00051F00895833019F0843009F008958CB519
:1002C0008F7D8CBD08958AB58F778ABD08958AB5D4
:1002D0008F7DFBCF1F93CF93DF93E7E6F2E09491FE
:1002E000EDE5F2E0D491E3E5F2E0C491CC23B1F086
:1002F000182F992311F0892FD7DFEC2FF0E0EE0FA4
:10030000FF1FE45BFD4FA591B4918FB7F894EC917A
:10031000111108C0D095DE23DC938FBFDF91CF9100
:100320001F910895DE2BF8CFCF93DF93282F30E075
:10033000F901EA59FD4F8491F901E45AFD4FD49136
:10034000F901EE5AFD4FC491CC2399F08111ACDF35
:10035000EC2FF0E0EE0FFF1FEA5BFD4FA591B4918B
:10036000EC91ED2381E090E009F480E0DF91CF9102
:10037000089580E090E0FACF3FB7F894809139017A
:1003800090913A01A0913B01B0913C0122B708B68F
:1003900001FE05C02F3F19F00196A11DB11D3FBF01
:1003A000BA2FA92F982F8827BC01CD01620F711D8C
:1003B000811D911D42E0660F771F881F991F4A9586
:1003C000D1F708958F929F92AF92BF92CF92DF9212
:1003D000EF92FF926B017C01CFDF4B015C01C114F6
:1003E000D104E104F104B1F0C7DF681979098A0981
:1003F0009B09683E73408105910588F321E0C21A8C
:10040000D108E108F10888EE880E83E0981EA11C4F
:10041000B11CE5CFFF90EF90DF90CF90BF90AF90F1
:100420009F908F9008952FB7F89460913501709147
:10043000360180913701909138012FBF0895CF92F6
:10044000DF92EF92FF920F931F93CF93DF937C0184
:100450006B0110E000E081E03DDFD0E0C0E0000093
:100460002196CC16DD06D9F780E034DF90E080E0FD
:1004700000000196C817D907D9F70F5F1F4FE01684
:10048000F1064CF7DF91CF911F910F91FF90EF9004
:10049000DF90CF90089530E020E090E0AC01022E94
:1004A00001C0440F0A94EAF747FF0CC0C39AC49AEC
:1004B000C4982F5F3F4F2830310581F7C39AC49A03
:1004C000C4980895C398F3CFC498C398C49AC39AA4
:1004D0000895C49AC39AC398C4980895CF93DF939C
:1004E000C82FD62FF6DF88E7D6DF80E0D4DF80EB99
:1004F0008D0FD1DF8C2F82958F708061CCDF8C2F98
:100500008E708160C8DFDF91CF91DECF683008F454
:10051000E5CF0895DEDF88E7BEDF80E4BCCF8F92B1
:100520009F92BF92CF92DF92EF92FF920F931F9311
:10053000CF93DF93C0916600D09167000091C9010D
:100540001091CA01B0906000CE01029765E170E0A1
:1005500000D7835C9E4FFC01E00FF11FB082802F1B
:1005600066E0EED66C2FD2DFD5DF80EE8B0D90E00B
:1005700066E070E0EED6F12CE12C825E9F4F6C01BC
:10058000F601EE0DFF1D849186DF8FEFE81AF80A61
:10059000E6E0EE16F104A1F797DF0F5F1F4F10930F
:1005A000CA010093C901053111050CF494C0C6308D
:1005B000D10591F52DE3E22E21E0F22EC2E0670194
:1005C000D0E0F601158911936F016C2F8D2F9EDFFE
:1005D000A1DF812F110F990B809766E070E0B9D6EB
:1005E00010E000E0825E9F4F4C01F401E00FF11F2C
:1005F000849151DF0F5F1F4F06301105B1F764DFA3
:10060000DA5FDE37F1F6F5E1EF0EF11CCF5FC630B1
:10061000B1F6C5E0D0E006C0CE0101969093670028
:10062000809366006091660080E070DF73DF10E009
:1006300080E031DF1F5F1038D9F746DF1092CA0122
:100640001092C90180E28B150CF045C0CE0165E126
:1006500070E07FD6835C9E4F7C0186EAC82E81E0E5
:10066000D82E90E2B92E0091C7011091C801E1E0A7
:10067000EE1AF108C601865A91408017910754F48A
:10068000F60181916F018093600049DFF701759752
:10069000B082E9CF802F6AEF53D66C2F825836DFB5
:1006A00039DFC80166E070E054D68C01D0E0C0E0CC
:1006B000C017D10724F480E0EEDE2196F9CFDF9158
:1006C000CF911F910F91FF90EF90DF90CF90BF904F
:1006D0009F908F90F9CEDF91CF911F910F91FF9056
:1006E000EF90DF90CF90BF909F908F900895AF9242
:1006F000BF92CF92DF92FF920F931F93CF93DF931E
:10070000C82FF62E6A01D0E0F601ED0FF11D108121
:10071000112309F11052CF3710F0F394C0E06F2D80
:100720008C2FF4DEF7DE812F90E066E070E011D6CA
:1007300010E000E0825E9F4F5C01F501E00FF11FC9
:100740008491A9DE0F5F1F4F06301105B1F7BCDEA3
:10075000CA5FDF5FD9CFDF91CF911F910F91FF90DB
:10076000DF90CF90BF90AF900895CF93C82FB1DEA8
:1007700088E791DE80E08FDE8C2F8DDECF91A4CED6
:10078000CF93DF93C0EB8C2FF0DF80E0EEDF80E1D2
:10079000ECDFC0DED0E080E07EDEDF5FD038D9F76E
:1007A00093DECF5FC83B79F7DF91CF910895BB9A75
:1007B000BC9A8EEADADF80E0D8DF80E1D6DF80E421
:1007C000D4DF81E8D2DF8FECD0DF81EACEDF88ECA6
:1007D000CCDF86EACADF88EAC8DF8FE3C6DF83EDB5
:1007E000C4DF80E0C2DF85EDC0DF80E8BEDF89EDD9
:1007F000BCDF81EFBADF8AEDB8DF82E1B6DF8BEDD7
:10080000B4DF80E4B2DF80E2B0DF82E0AEDF8DE80B
:10081000ACDF84E1AADF84EAA8DF86EAA6DF8FEAFC
:10082000A4CF0F931F93CF93DF93CDB7DEB72A9753
:100830000FB6F894DEBF0FBECDBF8E010F5F1F4F06
:100840002AE0F80111922A95E9F74AE0B801CBD3E2
:10085000A80160E080E64BDF2A960FB6F894DEBF71
:100860000FBECDBFDF91CF911F910F910895CF9211
:10087000DF92EF92FF9281E0809361001092C801B5
:100880001092C7011092C6011092C5016091D1016A
:100890007091D201072E000C880B990B72D420E0C6
:1008A00030E040E450E4D2D39B01AC0160E070E062
:1008B00086E994E4CBD3A0D46B017C0149EA50E0F3
:1008C00060E080E614DFC701B60128D4CB01A9DFC0
:1008D0008091CF019091D0012091BF013091C00152
:1008E000820F931F97FD0196959587954496909357
:1008F000D0018093CF0180E280936000FF90EF9061
:10090000DF90CF900CCE1F920F920FB60F92112452
:100910002F933F938F939F93AF93BF938091350114
:1009200090913601A0913701B09138013091340196
:1009300023E0230F2D3758F50196A11DB11D2093FB
:1009400034018093350190933601A0933701B09321
:1009500038018091390190913A01A0913B01B09109
:100960003C010196A11DB11D8093390190933A017C
:10097000A0933B01B0933C01BF91AF919F918F91A8
:100980003F912F910F900FBE0F901F90189526E862
:10099000230F0296A11DB11DD2CF1F920F920FB649
:1009A0000F9211248F939F9381E090E09093D40154
:1009B0008093D3019F918F910F900FBE0F901F9046
:1009C000189578948AB582608ABD8AB581608ABD9F
:1009D00083B7826083BF83B7816083BF89B782603A
:1009E00089BF80B7826080BF80B7816080BF329A44
:1009F000319A309A379A8CB580648CBD82E087BB7F
:100A000081E085BB8BB780628BBF7894A3E0EA2E30
:100A1000F12CE0EFCE2ED12CF0E54F2E512CC7DE7D
:100A2000AFDE4DEA50E060E080E061DE49EB50E08F
:100A300061E080E05CDE4DEC50E065E08BE157DE8C
:100A400062E080E14BDDC0E6D0E064DD8AE023DDDA
:100A50003BDD2197D1F764E08BE140DDC8E4D0E0D5
:100A600059DD80E218DD30DD2197D1F766E08BE1BA
:100A700035DDC8E4D0E04EDD84E00DDD25DD2197D5
:100A8000D1F76CED75E080E090E09CDCCCDC4B01B4
:100A90005C0180E049DC019709F0D1C0C4DC681931
:100AA00079098A099B09613D7740810591058CF39D
:100AB000C091D501C111BBC081E08093D5014AED41
:100AC00050E067E080E213DEC1E080E02DDC0197BA
:100AD000E1F3C11169C26CED75E080E090E072DC79
:100AE00066DE4EDE1092D4011092D301D092D20174
:100AF000C092D101D092D001C092CF015092CE01CC
:100B00004092CD011092CC011092CB011092CA01FB
:100B10001092C90182E090E0909367008093660094
:100B20001092C8011092C7011092C6011092C5011F
:100B3000CCEBD2E08091D501811104C0BE018EE1E1
:100B400090E07DDCE297C83CD105A1F742EF50E090
:100B500060E080E0CCDD8FE090E063DE332433940E
:100B60007BE6272E8091D3019091D401892B09F047
:100B700001C282E0D9DB9093650080936400892BE9
:100B800009F45FC08091C1019091C201A091C3019D
:100B9000B091C401181619061A061B0644F41092E7
:100BA000C1011092C2011092C3011092C401809140
:100BB000BB019091BC01A091BD01B091BE01892BF8
:100BC0008A2B8B2B49F42FDC6093BB017093BC0103
:100BD0008093BD019093BE01109262001092630059
:100BE00062E070E080E090E0EDDB8091B7019091F1
:100BF000B801892B31F481E090E09093B8018093A3
:100C0000B7018091640090916500892BD1F08091AB
:100C1000D501811105C06AEF70E082E390E00FDC3E
:100C200082E082DB9093650080936400EACF1092AB
:100C3000D50145EE50E067E08FE159DD46CFC0E0D9
:100C400044CF00916400109165000115110509F071
:100C500089CF8091C1019091C201A091C301B0914F
:100C6000C401892B8A2B8B2B49F4DDDB6093C101F6
:100C70007093C2018093C3019093C401D4DB20918F
:100C8000C1013091C201AB01421B530B5093C00113
:100C90004093BF014A3051050CF464CF8091D101DB
:100CA0009091D201880F991F841795072CF4809199
:100CB0006100811101C0DBDD8090BB019090BC011F
:100CC000A090BD01B090BE01181419041A041B04B1
:100CD0007CF4A9DB681979097093BA016093B901B2
:100CE0001092BB011092BC011092BD011092BE0186
:100CF00080916300811123C0E091CD01F091CE017C
:100D00002091B9013091BA01CF01B70133D3261731
:100D10003707ACF08091B7019091B801880F991F07
:100D20009093B8018093B701309263002E173F076C
:100D30000CF086C001969093B8018093B701809122
:100D4000620081110FCF2091BF013091C0018091CD
:100D5000CD019091CE01821793070CF06CC01092D8
:100D600061008091B7019091B8018F3FF1E09F073A
:100D700009F08EC0A090CB01B090CC011A141B04D6
:100D80000CF053C060906600709067002091C9011C
:100D90003091CA0121503109C301029765E170E029
:100DA000D8D2835C9E4FFC01E20FF31F808180321A
:100DB00021F43093CA012093C9018091C901909117
:100DC000CA0101979093CA018093C901C091C901DA
:100DD000D091CA018C2F66E0B3D2662D97DB9ADBE7
:100DE00086E0882E912C80E056DB21E0821A910863
:100DF000D1F76ADBCE0101979093CA018093C901B4
:100E00000F5F1F4FA016B10609F7D093CA01C09318
:100E1000C9011092CC011092CB01D7FF04C01092EF
:100E2000CA011092C90130926100309262001092A2
:100E3000B8011092B7011092BA011092B90192CE86
:100E40008091D1019091D201280F391F37FF02C044
:100E50002F5F3F4F35952795293E93E039078CF456
:100E60003093D2012093D1018091D1019091D20190
:100E7000B70180D2660F771F7093CE016093CD01CA
:100E80005ECFE8EEF3E0F093D201E093D101ECCF36
:100E90002091C7013091C801803491050CF447C0FE
:100EA0003093CC012093CB018136910589F19CF4DC
:100EB0008C34910549F13CF48734910501F1F3E25A
:100EC000F09360001FC08435910501F18E359105C6
:100ED000B1F78DE215C083379105F1F044F4853602
:100EE0009105C1F08A36910551F78EE209C08A3723
:100EF0009105B1F0863F910511F784E201C08AE3C4
:100F0000809360000CDB91CF8CE2FACF81E2F8CFC6
:100F100087E2F6CF80E4F4CF9FE390936000F2CFB6
:100F2000E3E7E0936000FBDA20926000EBCF8859A2
:100F30009F4FFC0140814093600021313105C4F492
:100F40008091C5019091C601FC01EA55FE4F408396
:100F50002F5F3F4F3093C8012093C70101969093B4
:100F6000C6018093C5013093CC012093CB01CACF39
:100F70007EDCC8CF05DC43E051E061E08BE0B7DB0D
:100F800044E151E062E08BE0B2DB43E051E063E03A
:100F90008BE0ADDB43E251E066E080E0A8DB60EB94
:100FA00074E080E090E00EDAEBDB8EEADEDB37986F
:100FB00085B7877E806185BF85B7806285BF85B72D
:100FC000806285BF889585B78F7D85BF85B78F7D0A
:100FD00085BF379A8FEAC9DB80E090E0892B09F45E
:100FE0001ECD0ED816CDBB274A3031F4992322F4FA
:100FF000BDE2909581959F4F01C0BB27FB0155270E
:10100000AA27880F991FAA1FA41710F0A41B839565
:101010005051B9F7A05DAA3308F0A95DA1930097DC
:1010200079F7B111B1931192CB0100C0DC01FC0141
:10103000672F71917723E1F7329704C07C916D930C
:1010400070836291AE17BF07C8F308950CD027C113
:101050001FD140F016D130F021F45F3F19F0DFC00E
:10106000511168C10BC12CD198F39923C9F35523B1
:10107000B1F3951B550BBB27AA276217730784078B
:1010800038F09F5F5F4F220F331F441FAA1FA9F341
:1010900033D00E2E3AF0E0E830D091505040E69533
:1010A000001CCAF729D0FE2F27D0660F771F881F94
:1010B000BB1F261737074807AB07B0E809F0BB0B83
:1010C000802DBF01FF2793585F4F2AF09E3F5105A7
:1010D00068F0A5C02FC15F3FECF3983EDCF3869526
:1010E00077956795B795F7959F5FC9F7880F911D1D
:1010F0009695879597F90895E1E0660F771F881F09
:10110000BB1F621773078407BA0720F0621B730BBB
:10111000840BBA0BEE1F88F7E095089504D068940D
:10112000B11108C10895D4D088F09F5790F0B92F1D
:101130009927B751A0F0D1F0660F771F881F991F2C
:101140001AF0BA95C9F712C0B13081F0F2D0B1E00F
:101150000895EFC0672F782F8827B85F39F0B93F1F
:10116000CCF3869577956795B395D9F73EF490952E
:101170008095709561957F4F8F4F9F4F0895E894AC
:1011800009C097FB3EF490958095709561957F4FCF
:101190008F4F9F4F9923A9F0F92F96E9BB2793957D
:1011A000F695879577956795B795F111F8CFFAF48D
:1011B000BB0F11F460FF1BC06F5F7F4F8F4F9F4FBE
:1011C00016C0882311F096E911C0772321F09EE81C
:1011D000872F762F05C0662371F096E8862F70E082
:1011E00060E02AF09A95660F771F881FDAF7880F5C
:1011F0009695879597F9089585D080F09F3740F4AC
:1012000091110EF097C060E070E080E89FEB0895C8
:1012100026F41B16611D711D811D07C021C097F9A1
:101220009F6780E870E060E00895882371F4772379
:1012300021F09850872B762F07C0662311F4992749
:101240000DC09051862B70E060E02AF09A95660FF1
:10125000771F881FDAF7880F9695879597F9089575
:101260009F3F31F0915020F4879577956795B7951A
:10127000880F911D9695879597F908959FEF80ECBB
:10128000089500240A9416161706180609060895EC
:1012900000240A9412161306140605060895092E52
:1012A0000394000C11F4882352F0BB0F40F4BF2BC1
:1012B00011F460FF04C06F5F7F4F8F4F9F4F089501
:1012C00057FD9058440F551F59F05F3F71F04795F7
:1012D000880F97FB991F61F09F3F79F087950895DC
:1012E000121613061406551FF2CF4695F1DF08C0FB
:1012F000161617061806991FF1CF86957105610518
:1013000008940895E5DFA0F0BEE7B91788F4BB277D
:101310009F3860F41616B11D672F782F8827985FC5
:10132000F7CF869577956795B11D93959639C8F354
:101330000895E894BB2766277727CB0197F908958E
:10134000002480FD060E660F11F08695D1F7802DE2
:1013500008950024552704C0080E591F880F991FAF
:10136000009729F076956795B8F37105B9F7802D48
:10137000952F089597FB072E16F4009406D077FD5D
:1013800008D00BD007FC05D03EF4909581959F4F77
:101390000895709561957F4F0895AA1BBB1B51E17D
:1013A00007C0AA1FBB1FA617B70710F0A61BB70BD5
:1013B000881F991F5A95A9F780959095BC01CD017A
:0613C0000895F894FFCF30
:1013C6002001010101000200232354454D4E4149ED
:1013D6004F474B44575255532323515A594358426A
:1013E6004A50234C23465648303923382323233783
:1013F60023232323232F2D36312323232323232380
:101406003223232333233435002020200020204D8F
:10141600204F205220532045002020202020204409
:1014260020452043204F20442045205200616E6411
:1014360079206A61636B736F6E002D2D204D5554B4
:1014460045202D2D002D20534F554E44204F4E2024
:101456002D004C697374656E696E672E2E20575089
:101466004D3A002D2D2D2D2D2D2D2D2D2D2D2D2DA6
:101476002D2D2D0020532054204F20502050204544
:101486002044002020202020202020202062796572
:041496002E2E2E00C8
:00000001FF
