:100000005BC1C9C9EFC973C172C154C970C16FC1A5
:100010006EC16DC16CC16BC16AC169C168C17777BE
:1000200000007077700070007077700770077007BD
:1000300000EE7077000E7007EE0088002280082026
:1000400002882280082002882200F8003E800FE00B
:1000500003F83E800FE003F83E00010203030405AD
:100060000606070808000101020304040506070844
:100070000000000036004444C04460446006C006EE
:10008000400E600C00000000000000000000003F77
:100090000000000000000000000C0C006030180C94
:1000A000060301003E63737B6F673E000C0E0C0C71
:1000B0000C0C3F001E33301C06333F001E33301C37
:1000C00030331E00383C36337F3078003F031F301A
:1000D00030331E001C06031F33331E003F3330181D
:1000E0000C0C0C001E33331E33331E001E33333E04
:1000F00030180E000C1E33333F3333003F66663E2C
:1001000066663F003C66030303663C001F36666676
:1001100066361F007F46161E16467F007F46161E57
:1001200016060F003C66030373667C003333333FCF
:10013000333333001E0C0C0C0C0C1E0078303030A6
:1001400033331E006766361E366667000F060606E6
:1001500046667F0063777F7F6B63630063676F7BB7
:10016000736363001C36636363361C003F66663E40
:1001700006060F001E3333333B1E38003F66663ED3
:10018000366667001E33070E38331E003F2D0C0CF9
:100190000C0C1E003333333333333F0033333333EC
:1001A000331E0C006363636B7F7763006363361CED
:1001B0001C3663003333331E0C0C1E007F63311872
:1001C0004C667F0000001E303E336E000706063E80
:1001D00066663B0000001E3303331E003830303E9D
:1001E00033336E0000001E333F031E001C36060F23
:1001F00006060F0000006E33333E301F0706366ED2
:10020000666667000C000E0C0C0C1E0030003030CF
:100210003033331E070666361E3667000E0C0C0C94
:100220000C0C1E000000337F7F6B630000001F3347
:100230003333330000001E3333331E0000003B66AF
:10024000663E060F00006E33333E307800003B6E92
:1002500066060F0000003E031E301F00080C3E0C17
:100260000C2C18000000333333336E00000033339E
:10027000331E0C000000636B7F7F36000000633686
:100280001C36630000003333333E301F00003F193B
:100290000C263F00000000003800020202020202A9
:1002A00002020202010204081020200410080102C8
:1002B000000004000000000011241FBECFE5D2E0C2
:1002C000DEBFCDBF10E0A0E6B0E0ECECFDE102C087
:1002D00005900D92AE3BB107D9F721E0AEEBB0E04F
:1002E00001C01D92A336B207E1F7AED86DCD88CE1E
:1002F000EF92FF921F93CF93DF938150282F30E02E
:10030000220F331F2A583F4F69E371E090E0C1E0AC
:10031000D0E081E014E0190FDB01F901E590F490E1
:10032000AE01092E02C0440F551F0A94E2F74E2178
:100330005F21092E02C0569547950A94E2F7413095
:100340005105D9F48C939F5F11969113E6CF6C5FA2
:100350007F4F9031F9F683E190E090934A018093CA
:10036000490183E090E090934C0180934B01DF9131
:10037000CF911F91FF90EF9008951C92E4CF8230AF
:1003800089F018F4813051F00895833019F08430E9
:1003900009F008958CB58F7D8CBD08958AB58F774F
:1003A0008ABD08958AB58F7DFBCF1F93CF93DF93CE
:1003B000EFEAF2E09491E5EAF2E0D491EBE9F2E0C1
:1003C000C491CC23B1F0182F992311F0892FD7DFD6
:1003D000EC2FF0E0EE0FFF1FEC56FD4FA591B4910E
:1003E0008FB7F894EC91111108C0D095DE23DC93FF
:1003F0008FBFDF91CF911F910895DE2BF8CFCF9360
:10040000DF93282F30E0F901E255FD4F8491F90187
:10041000EC55FD4FD491F901E656FD4FC491CC2324
:1004200099F08111ACDFEC2FF0E0EE0FFF1FE059E7
:10043000FF4FA591B491EC91ED2381E090E009F498
:1004400080E0DF91CF91089580E090E0FACF3FB750
:10045000F89480910F0190911001A0911101B09139
:10046000120122B708B601FE05C02F3F19F0019610
:10047000A11DB11D3FBFBA2FA92F982F8827BC01FE
:10048000CD01620F711D811D911D42E0660F771F26
:10049000881F991F4A95D1F708958F929F92AF9226
:1004A000BF92CF92DF92EF92FF924B015C01CFDFC0
:1004B0006B017C01CCDF6C197D098E099F09683EB8
:1004C000734081059105B0F321E0821A9108A108DB
:1004D000B10888EEC80E83E0D81EE11CF11C81141F
:1004E0009104A104B10431F7FF90EF90DF90CF9019
:1004F000BF90AF909F908F9008952FB7F894609120
:100500000B0170910C0180910D0190910E012FBF94
:10051000089508950F931F93CF93DF93262FE0E064
:10052000683020F0603158F12F50E2E0A82FB0E0A1
:10053000F0E0CD0163E070E00FDC84529F4FEC01EE
:10054000CE0FDF1FC881022F10E0CD0163E070E005
:1005500003DC84529F4FE80FF91F442399F061E0B8
:1005600070E0CB0102C0880F991F2A95E2F79C0129
:100570002C2B2083DF91CF911F910F91089528504C
:10058000E1E0D4CF67E070E0601B710B4FE750E013
:1005900002C0559547956A95E2F76EEF70E001C08D
:1005A000660F2A95EAF7462B4C234083E3CFBF9290
:1005B000CF92DF92EF92FF920F931F93CF93DF932F
:1005C000C82E0FE411E0C0E07801D0E0F70181917E
:1005D0007F01813069F4D0905F01B09060016D2F90
:1005E0006D0D809161018C0FC11014C041E092DF4C
:1005F000DF5FD43059F7CF5F0C5F1F4FC43021F756
:10060000DF91CF911F910F91FF90EF90DF90CF90EE
:10061000BF90089540E07EDFD0924D01B0924E0130
:10062000E7CF462F90E0262F30E06830C0F463E03B
:1006300070E092DB84529F4FFC01808190E021E0CA
:1006400030E0042E02C0220F331F0A94E2F7822307
:10065000932302C0959587954A95E2F708956031F6
:10066000D0F02F50310963E070E076DB84529F4F69
:10067000FC01828190E041E050E0022E02C0440F74
:10068000551F0A94E2F78423952302C09595879518
:100690002A95E2F708952850310963E070E05CDBA9
:1006A00084529F4FFC018181E5CF0F931F93CF931D
:1006B000DF93262FE0E0683020F0603158F12F50B2
:1006C000E2E0A82FB0E0F0E0CD0163E070E044DBB1
:1006D00082549F4FEC01CE0FDF1FC881022F10E024
:1006E000CD0163E070E038DB82549F4FE80FF91FC3
:1006F000442399F061E070E0CB0102C0880F991F9C
:100700002A95E2F79C012C2B2083DF91CF911F913A
:100710000F9108952850E1E0D4CF67E070E0601BAE
:10072000710B4FE750E002C0559547956A95E2F787
:100730006EEF70E001C0660F2A95EAF7462B4C2356
:100740004083E3CFDF92EF92FF920F931F93CF93FB
:10075000DF93D82E09E311E0C0E07801D0E0F70183
:1007600081917F01813051F4609149016D0F809139
:100770004B018C0F41E0D11040E097DFDF5FD430B8
:1007800071F7CF5F0C5F1F4FC43039F7DF91CF9106
:100790001F910F91FF90EF90DF900895462F90E00A
:1007A000262F30E06830C0F463E070E0D5DA825480
:1007B0009F4FFC01808190E021E030E0042E02C0D8
:1007C000220F331F0A94E2F78223932302C09595E8
:1007D00087954A95E2F708956031D0F02F5031099E
:1007E00063E070E0B9DA82549F4FFC01828190E0AF
:1007F00041E050E0022E02C0440F551F0A94E2F778
:100800008423952302C0959587952A95E2F708954C
:100810002850310963E070E09FDA82549F4FFC0159
:100820008181E5CF5F926F927F928F929F92AF927C
:10083000BF92CF92DF92EF92FF920F931F93CF93CD
:10084000DF93C0904B01D0904C0180904901909073
:100850004A01E601360183E0680E711C540193E001
:10086000A90EB11C5C2EEC2EEC186C167D064CF11A
:100870008401F12CEE0CFF1CEE0CFF1CC701875C01
:100880009E4F7C01E02FE819A016B106C4F0EE0DD2
:10089000FF2DF11D8081882379F0D7FD23C0CA3058
:1008A000D10514F517FD20C0083111052CF4602F77
:1008B000852D74DF811118C00F5F1F4FE3CF219684
:1008C000D1CF80E0DF91CF911F910F91FF90EF90FA
:1008D000DF90CF90BF90AF909F908F907F906F9060
:1008E0005F90089582E0EECF81E0ECCFCF93DF936D
:1008F000C0914901D0914A01C330D105ACF1CE017C
:10090000029790934A01809349018CDF209149011D
:1009100030914A01811107C02150310930934A01B9
:1009200020934901F2CF80E1E9E3F1E0AFE4B1E0E7
:1009300001900D928A95E1F72F5F3F4F3093600150
:1009400020935F0180914B0190914C019093620143
:1009500080936101DD27D0934A01C093490122971A
:1009600081E02C173D070CF080E0DF91CF910895D6
:1009700030E020E090E0AC01022E01C0440F0A9468
:10098000EAF747FF0CC0C39AC49AC4982F5F3F4F41
:100990002830310581F7C39AC49AC4980895C39842
:1009A000F3CFC498C398C49AC39A0895C49AC39ABB
:1009B000C398C4980895CF93DF93C82FD62FF6DF3E
:1009C00088E7D6DF80E0D4DF80EB8D0FD1DF8C2F7E
:1009D00082958F708061CCDF8C2F8E708160C8DF34
:1009E000DF91CF91DECFE2DF88E7C2DF80E4C0CFC6
:1009F000CF92DF92EF92FF920F931F93CF93DF93EB
:100A0000082F7B0110E0F701E10FF11D80818823A1
:100A100061F1C0E0803251F0C4EDC80FC03130F058
:100A2000CDECC80FC93210F0C7ECC80F183018F45D
:100A3000612F802FC0DFD7DFD0E083E0CC0FDD1F38
:100A40008A95E1F7D12CC12CC557DF4FFE01EC1977
:100A5000FD0984918DDF8FEFC81AD80A88E0C81687
:100A6000D104A1F79EDF1F5FCECFDF91CF911F9101
:100A70000F91FF90EF90DF90CF900895BF92CF92AB
:100A8000DF92EF92FF920F931F93CF93DF9300D0EB
:100A900000D000D0CDB7DEB79C01B62EC42EEAE060
:100AA000F0E0BF016AD98E83CB01BF0166D98D8387
:100AB000C90164E670E061D9CB01BF015ED98C83C6
:100AC000C90168EE73E059D9CB01BF0156D98B83B8
:100AD000C90160E177E251D96A831982CE0101969A
:100AE0007C01DD24D3946D2D8B2D65DF7CDF07E049
:100AF00010E080E0C1100EC0D701EC91F0E0349618
:100B000083E0EE0FFF1F8A95E1F7E00FF11FEC572E
:100B1000FF4F84912DDF0150110958F742DFD39424
:100B20008FEFE81AF80A97E0D912DDCF26960FB6B4
:100B3000F894DEBF0FBECDBFDF91CF911F910F9113
:100B4000FF90EF90DF90CF90BF9008952F923F924B
:100B50004F925F926F927F928F929F92AF92BF92CD
:100B6000CF92DF92EF92FF920F931F93CF93DF9379
:100B7000CDB7DEB761970FB6F894DEBF0FBECDBF1D
:100B80004A010D87590124E1A216B1041CF0E3E1EA
:100B9000AE2EB12CFC0197FF02C0F0E0E0E0EB5973
:100BA000FF4F0491FB016B30710514F0EAE0F0E0B7
:100BB000E65AFF4F34913C87209135013091360140
:100BC000EAE0F0E0C901BF01D8D88E83CB01BF01B4
:100BD000D4D88D83C90164E670E0CFD8CB01BF01C2
:100BE000CCD88C83C90168EE73E0C7D8CB01BF01B4
:100BF000C4D88B83C90160E177E2BFD86A831982C8
:100C0000882D97FC80E0382E66E09DD88B8710E019
:100C1000CC24C394D12CCC0EDD1EC00ED11EE02EF0
:100C20004C85041708F0C5C055245394500E53E06A
:100C3000501708F07FC086E0801718F442E0542E69
:100C4000500EFE2CFF0C97E09E1518F06E2D8B8534
:100C5000B2DEC9DE181419040CF46EC08FEF88DE02
:100C6000712C8F2D90E0FC01E65BFF4FF887EF833E
:100C700022242394250C9C012F5F3F4FA901465B42
:100C80005F4F5A874987D901A65CBF4FBF87AE87A0
:100C9000FC01E65CFF4FF98BE88B7A141B040CF027
:100CA00055C0412C66246394EE2029F0F7E030E82B
:100CB000632EEF12612C672D852D70DDF62C8823B5
:100CC00021F0EF81F885F490F628672D822D66DDFE
:100CD000882321F0E985FA858491F82A80916400BF
:100CE0008823F1F0672D852D9CDC882351F0842D1D
:100CF0008B7FEF81F885882311F0E889F989849149
:100D0000F82A672D822D8DDC882351F0842D8B7F6E
:100D1000E985FA85882311F0EE85FF858491F82A0C
:100D20008F2D26DE4394F5E04F12BCCF862D20DEBA
:100D30007394B3CF502E85CF81E0EE2021F0A7E051
:100D400080E8EA1280E014DE732C8BCF2D85211110
:100D500019C035E03E15E8F027E0E22EF12CD6016F
:100D6000EC91F0E0349693E0EE0FFF1F9A95E1F7D7
:100D7000EE0DFF1DEC57FF4F8491FADDB1E0EB1A49
:100D8000F10868F70EDEEFEFCE1ADE0A0F5F1F4F95
:100D900046CF98012C503F4F790188E0782ED7013B
:100DA0008C91E6DD7A94B2E0EB0EF11C7110F7CF76
:100DB000E9CF61960FB6F894DEBF0FBECDBFDF91CD
:100DC000CF911F910F91FF90EF90DF90CF90BF9048
:100DD000AF909F908F907F906F905F904F903F90DB
:100DE0002F900895EF92FF920F93CF93DF93EC0132
:100DF0007B0101E0ABDE40915F0150916001809189
:100E00004D0190914E019C012C5F3F4F48175907AF
:100E10002CF09A012C5F3F4F01E0AC01B701CE01ED
:100E200095DEDF91CF910F91FF90EF9008950F9392
:100E300084E1E9E3F1E0A3E1B1E001900D928A954C
:100E4000E1F780914B0190914C01019790934C01F7
:100E500080934B01E7DC813059F484E1E3E1F1E078
:100E6000A9E3B1E001900D928A95E1F70F91089501
:100E70008230C9F5E5E4F1E030E020E0819188239B
:100E800011F021E030E081E0E934F807B9F7E1E45E
:100E9000F1E045E451E081E09191911180E04E173D
:100EA0005F07D1F7882311F02FEF3FEF87E090E045
:100EB000821B930B90934C0180934B01B3DC8130E8
:100EC00061F281E074DB12DD882311F080E06FDBDA
:100ED00000E023E130E050E040E06AE070E090E0C4
:100EE00080E034DEC3CF81E062DB00DD882309F4DB
:100EF000BDCF80E00F915BCBCF93C82F57DD88E744
:100F000037DD80E035DD8C2F33DDCF914ACDCF93B7
:100F1000DF93C0EB8C2FF0DF80E0EEDF80E1ECDFD1
:100F200062DDD0E080E024DDDF5FD038D9F739DD45
:100F3000CF5FC83B79F7DF91CF910895BB9ABC9AF8
:100F40008EEADADF80E0D8DF80E1D6DF80E4D4DF2C
:100F500081E8D2DF8FECD0DF81EACEDF88ECCCDF16
:100F600086EACADF88EAC8DF8FE3C6DF83EDC4DF25
:100F700080E0C2DF85EDC0DF80E8BEDF89EDBCDF49
:100F800081EFBADF8AEDB8DF82E1B6DF8BEDB4DF47
:100F900080E4B2DF80E2B0DF82E0AEDF8DE8ACDF7C
:100FA00084E1AADF84EAA8DF86EAA6DF8FEAA4CF7D
:100FB00080912B0181110CC082E080932B019DDA7E
:100FC00060932701709328018093290190932A014F
:100FD0000895CF92DF92EF92FF920F931F93CF93DA
:100FE000DF937C016B0110E000E081E0DED9D0E00E
:100FF000C0E0CC15DD0519F000002196FACF80E0A5
:10100000D4D990E080E0C817D90719F00000019604
:10101000FACF0F5F1F4FE016F1063CF7DF91CF913B
:101020001F910F91FF90EF90DF90CF9008950F9355
:10103000CF93DF93EAEFF0E090E1DF011D929A9504
:10104000E9F78150F1F4DF01EEE1F0E084911496CC
:101050008C931497849115968C931597129621E092
:10106000A230B20799F700E023E130E050E040E021
:101070006AE070E090E080E069DDDF91CF910F9150
:10108000089590E0880F991F880F991FBC01625E38
:101090007F4FAC01415E5F4FAAEFB0E0ED01FB0175
:1010A00024912883FA01249129832296F1E0C0300B
:1010B000DF07A9F7AC01405E5F4F8F5D9F4FFA01DC
:1010C000249118962C931897FC01249119962C932F
:1010D00019971296F1E0A030BF0789F7C4CFFF92AD
:1010E0000F931F93CF93DF9380E1E9E3F1E0A3E156
:1010F000B1E001900D928A95E1F7C0914901D0913C
:101100004A01D0932401C093230180914B01909117
:101110004C019093260180932501CE010197909375
:101120004A01809349017EDB882309F48FC0D09364
:101130004A01C093490180E005DBC0E0D0E010E047
:1011400001E06C2F812F2ADB811101C000E01F5FBD
:101150001A30B9F70023F1F1DF5F60E273E08EE14E
:1011600090E037DF68E572E08EE190E032DF60E921
:1011700071E08EE190E02DDF10E040E06C2F812FD8
:1011800094DA1F5F1A30C9F74C2F50E09A012F5F95
:101190003F4F69E070E090E080E024DE6EE170E0B7
:1011A00080E090E07AD910E00C2F073178F4FF242A
:1011B000F394F00E6F2D812FF1DA41E0811101C01F
:1011C00040E0602F812F71DA0F2DEFCF1F5F1A30B3
:1011D00059F7C150CF5FC83109F0B1CF80913201CA
:1011E000909133018D0F911D9093330180933201C3
:1011F000D23009F443C0B8F58091350190913601A1
:101200008896D13009F440C000E023E130E050E09E
:1012100040E06AE070E090E080E098DCC09134014A
:101220008C2F66D8FFDA8823D9F181E080933701CB
:10123000C6D427E030E040E050E047D5DC01CB01E8
:101240000196A11DB11D80933401F1DE81E0AFD97B
:101250004DDB882311F080E0AAD9DF91CF911F9157
:101260000F91FF900895D330A1F0D43069F68091AA
:10127000350190913601805E9C4F06C0809135010A
:10128000909136018C599F4F909336018093350190
:10129000BBCF8091350190913601845D9E4FF4CF94
:1012A0008C2F26D881E083D921DB882309F280E0C6
:1012B0007ED9BECF1F920F920FB60F9211242F939B
:1012C0003F938F939F93AF93BF9380910B01909126
:1012D0000C01A0910D01B0910E0130910A0123E0A3
:1012E000230F2D3758F50196A11DB11D20930A013A
:1012F00080930B0190930C01A0930D01B0930E010C
:1013000080910F0190911001A0911101B0911201F3
:101310000196A11DB11D80930F0190931001A09320
:101320001101B0931201BF91AF919F918F913F91A5
:101330002F910F900FBE0F901F90189526E8230F46
:101340000296A11DB11DD2CF1F920F920FB60F9220
:1013500011242F933F934F935F936F937F938F93BA
:101360009F93AF93BF93EF93FF93E0916200F0914F
:1013700063000995FF91EF91BF91AF919F918F917C
:101380007F916F915F914F913F912F910F900FBE81
:101390000F901F9018951F920F920FB60F92112465
:1013A0002F933F934F935F936F937F938F939F936D
:1013B000AF93BF93EF93FF93E0916000F0916100D2
:1013C0000995FF91EF91BF91AF919F918F917F917F
:1013D0006F915F914F913F912F910F900FBE0F90A2
:1013E0001F9018951F920F920FB60F9211242F93F2
:1013F0003F934F935F936F937F938F939F93AF939D
:10140000BF93EF93FF9380912B0181110CC081E07A
:1014100080932B0172D860932701709328018093E9
:10142000290190932A01FF91EF91BF91AF919F9174
:101430008F917F916F915F914F913F912F910F907D
:101440000FBE0F901F901895CF93DF93CDB7DEB7E7
:1014500060970FB6F894DEBF0FBECDBF78948AB503
:1014600082608ABD8AB581608ABD83B7826083BF8E
:1014700083B7816083BF89B7826089BF80B782608C
:1014800080BF80B7816080BF329A319A309A379A94
:101490008CB580648CBD82E087BB81E085BB8BB757
:1014A00080628BBF78944ADD10922B01A7E04A2E10
:1014B000512C612C712CB5E42B2EB1E03B2E16E99A
:1014C000A12EB12C3BDD23DD69E670E088E590DAE2
:1014D00062E770E080E58CDA69E670E088E488DA3B
:1014E0006BE770E080E484DA64E870E088E380DA37
:1014F00069E670E080E37CDA00D86B017C0180E073
:101500007ED7019709F04EC1F8D76C197D098E0975
:101510009F09613D7740810591058CF382E06FD78B
:10152000019709F028C110913801111119C181E00A
:10153000809338016DE870E080E15ADA65E970E087
:1015400088E056DA11E080E05AD70197E1F31111F3
:10155000C5C264EC79E080E090E09FD7D8DC1092BF
:101560003701109236011092350100E040E0612F02
:10157000802F9BD80F5F0A30C9F71F5F1831A9F77A
:1015800010E000E040E0612F802FC4D70F5F0A30E9
:10159000C9F71F5F1831A9F788ED97E090936100B4
:1015A0008093600085B7836085BF8BB780648BBFF5
:1015B00006D3A301920189D381E0860F99D680E0FA
:1015C000C1D894D9882311F080E0F1D780E0EFD71B
:1015D000F6D2A301920179D3DC01CB010196A11DC2
:1015E000B11D8093340123DD80913801882391F06F
:1015F00014E681E0A7D873DDE2D2A301920165D39E
:1016000064307105810591050CF011DC80E09AD8F9
:10161000115079F781E090E090933301809332018B
:1016200000E023E130E050E040E06AE070E090E06C
:1016300080E08CDAF0903701F110B7C181E082D8F8
:101640004EDD80E07FD84091490150914A01809160
:101650004B0190914C019A012B5F3F4FBC016C5F95
:101660007F4FC0DB4AD760932E0170932F01809388
:101670003001909331018091320190913301880FB4
:10168000991F880F991F8935924024F0B092330139
:10169000A092320132D700912E0110912F0120919A
:1016A000300130913101AB01BC01401B510B620B89
:1016B000730B809132019091330126E930E0281BB1
:1016C000390BC901880F991F880F991F092E000C2B
:1016D000AA0BBB0B481759076A077B0708F0AACF6C
:1016E00082E08DD6019709F061C080912B01823094
:1016F00009F05CC002D700912701109128012091C8
:10170000290130912A01601B710B820B930B6D3202
:1017100071408105910508F449C082E070D60197B7
:1017200009F042C081E00ED8DADC80E00BD84091AD
:10173000490150914A0180914B0190914C019A01CD
:101740002B5F3F4FBC016C5F7F4F4CDB6AE070E06A
:1017500080E090E0A2D6809137018823F1F29ACF01
:10176000109238016DE970E080E142D965E970E0DE
:1017700088E03ED9E8CE1091640011110AC081E0E2
:101780008093640065EA70E080E132D96DEA70E030
:10179000D7CE1092640065EA70E080E129D965EB4C
:1017A00070E0E6CF10E0CFCE10922B0180E027D67C
:1017B000019709F05CC080912B018D7F813009F089
:1017C00056C09BD600912701109128012091290134
:1017D00030912A01601B710B820B930B693C7105E0
:1017E0008105910508F443C081E0ACD784E1E9E3C9
:1017F000F1E0A3E1B1E001900D928A95E1F78091CB
:101800004B0190914C01019690934C0180934B01B8
:1018100009D8882309F4A2C084E1E3E1F1E0A9E357
:10182000B1E001900D928A95E1F780E08BD740916D
:10183000490150914A0180914B0190914C019A01CC
:101840002C5F3F4FBC016C5F7F4F0197CBDA55D6C1
:101850006C597F4F8F4F9F4F6093270170932801E2
:101860008093290190932A0183E080932B0180E0EB
:10187000C6D5892B09F06CC082E0C1D5892B09F04F
:1018800067C080912B01823009F071C036D600917B
:101890002701109128012091290130912A01601B14
:1018A000710B820B930B6C3271408105910508F02E
:1018B0004DC081E047D790E080E09C01220F331FAC
:1018C000220F331FD101A21BB30BE1E0F0E0EC0FBC
:1018D000FD1FE80FF91F24E03D913083215034961D
:1018E0002111FACF01968430910539F784E1E9E3BB
:1018F000F1E0A3E1B1E001900D928A95E1F780E17A
:10190000FE013196A9E3B1E001900D928A95E1F7CD
:1019100089D7882309F441C084E1E3E1F1E0A9E338
:10192000B1E001900D928A95E1F780E00BD74091EC
:10193000490150914A0180914B0190914C019A01CB
:101940002C5F3F4FBC016C5F7F4F4CDA10922B0134
:101950006EE170E080E090E0A0D59CCE81E027D6DB
:10196000C5D7882309F461CF80E021D65ECF8130CE
:1019700069F781E0E7D65BDA80E0E4D6409149017F
:1019800050914A0180914B0190914C019A012C5F3A
:101990003F4FBC016B5F7F4FD8CF81E008D6A6D701
:1019A000882319F280E003D6C0CFB1DA90E080E05E
:1019B0005DD1082F10E0102F002710932D01009308
:1019C0002C0181E090E052D1082B10932D0100935F
:1019D0002C016091350170913601061717070CF044
:1019E000A1C070932D0160932C0181E090E046D15D
:1019F0006091360190E080E041D160E080E0DBD78B
:101A0000F2D78FEFB5D71DE781E0B2D71150E1F7DC
:101A10008FEFAED7C6D711E0612F80E0CCD7E3D7E8
:101A20008FEFA6D70DE780E0A3D70150E1F78FEF46
:101A30009FD71F5F173081F7B4D767E080E0BBD72F
:101A4000D2D78FEF95D71DE780E892D71150E1F7F5
:101A50008FEF8ED7A6D7C0903501D090360140E0E9
:101A600060E570E0C6010AD880902C0190902D01AD
:101A700040E068E270E0C40101D810E000E0B80185
:101A800082E390E0A6DA0E5C1F4F083E33E01307B6
:101A9000B1F714E041E060E570E0C601EFD7FF2048
:101AA00029F041E068E270E0C401E8D768EC70E03A
:101AB00080E090E0F2D440E060E570E0C601DED75F
:101AC000FF2029F040E068E270E0C401D7D768EC5D
:101AD00070E080E090E0E1D41150E1F668EE73E050
:101AE00080E090E0DAD413DA8EEA06DA379885B728
:101AF000877E806185BF85B7806285BF85B780623C
:101B000085BF889585B78F7D85BF85B78F7D85BF5C
:101B1000379A8FEAF1D980E090E0892B09F4D2CC92
:101B20006FD2D0CCF12C69CF8F929F92AF92BF929F
:101B3000CF92DF92EF92FF92CF93DF93EC01688117
:101B400079818A819B81611571058105910521F457
:101B500064E279ED8BE597E02DE133EF41E050E071
:101B6000B4D049015A0127EA31E440E050E094D072
:101B70006B017C012CEE34EF4FEF5FEFC501B40138
:101B80008BD0C60ED71EE81EF91EF7FE06C081E0F8
:101B9000C81AD108E10880E8F80AC882D982EA8226
:101BA000FB82C701B6019F77DF91CF91FF90EF9045
:101BB000DF90CF90BF90AF909F908F9008958F92BD
:101BC0009F92AF92BF92CF92DF92EF92FF9260917D
:101BD00065007091660080916700909168006115C2
:101BE00071058105910521F464E279ED8BE597E0BB
:101BF0002DE133EF41E050E068D049015A0127EA76
:101C000031E440E050E048D06B017C012CEE34EF31
:101C10004FEF5FEFC501B4013FD0C60ED71EE81EDF
:101C2000F91EF7FE06C081E0C81AD108E10880E875
:101C3000F80AC0926500D0926600E0926700F092C8
:101C40006800C701B6019F77FF90EF90DF90CF90BB
:101C5000BF90AF909F908F900895609365007093B0
:101C6000660080936700909368000895E199FECF25
:101C70009FBB8EBBE09A99278DB30895262FE199DB
:101C8000FECF1CBA9FBB8EBB2DBB0FB6F894E29A59
:101C9000E19A0FBE01960895EE27FF27AA27BB27DA
:101CA00008C0A20FB31FE41FF51F220F331F441FEC
:101CB000551F969587957795679598F37040A9F786
:101CC000009799F7BD01CF010895052E97FB16F4F3
:101CD00000940FD057FD05D014D007FC02D046F475
:101CE00008C050954095309521953F4F4F4F5F4F1D
:101CF000089590958095709561957F4F8F4F9F4F78
:101D00000895A1E21A2EAA1BBB1BFD010DC0AA1F3C
:101D1000BB1FEE1FFF1FA217B307E407F50720F054
:101D2000A21BB30BE40BF50B661F771F881F991FCF
:101D30001A9469F760957095809590959B01AC0118
:101D4000BD01CF010895002480FD060E660F11F03D
:101D50008695D1F7802D08950024552704C0080EDC
:101D6000591F880F991F009729F076956795B8F34A
:101D70007105B9F7802D952F089597FB072E16F45E
:101D8000009406D077FD08D00BD007FC05D03EF4B8
:101D9000909581959F4F0895709561957F4F089517
:101DA000AA1BBB1B51E107C0AA1FBB1FA617B70781
:101DB00010F0A61BB70B881F991F5A95A9F780959D
:0C1DC0009095BC01CD010895F894FFCF70
:101DCC00890289020101000000202D2D2D2D2D2DC1
:101DDC00200020544554524953200020417474690A
:101DEC006E792000204172636164652000202048D8
:101DFC00415244200020204D4F44452000204E4F9E
:101E0C00524D414C002047484F5354200020204F46
:0E1E1C004E2020200020204F464620200000AF
:00000001FF
