:10000000D8C018C53EC5FAC0F9C0A3C4F7C0F6C031
:10001000F5C0F4C0F3C0F2C0F1C0F0C0EFC0000002
:1000200000000000000808080808000060600000E8
:10003000003C4030403C003E5149453E0000427F7C
:100040004000004261514946002141454B310018B2
:1000500014127F10002745454539003C4A49493074
:10006000000171090503003649494936000649492E
:10007000291E000036360000007C1211127C007F21
:1000800049494936003E41414122007F4141221CFD
:10009000007F49494941007F09090901003E414962
:1000A000497A007F0808087F0000417F4100002056
:1000B00040413F01007F08142241007F4040404002
:1000C000007F020C027F007F0408107F003E414148
:1000D000413E007F09090906003E4151215E007F33
:1000E000091929460046494949310001017F0101AA
:1000F000003F4040403F001F2040201F003F40384D
:10010000403F002054545478007F4844443800381D
:100110004444442000384444487F00385454541820
:1001200000087E0901020018A4A4A47C001CA0A061
:10013000A07C0000447D4000004080847D00007F62
:10014000102844000000417F4000007C041804781F
:10015000007C0804047800384444443800FC24241B
:1001600024180018242418FC007C08040408004803
:100170005454542000043F444020003C4040207C24
:10018000001C2040201C0000000036000000000081
:100190003800020202020202020202020102040804
:1001A00010202004100801020000040000000000DC
:1001B000220C11241FBECFE5D2E0DEBFCDBF11E07F
:1001C000A0E6B0E0E2EBFDE102C005900D92A632A0
:1001D000B107D9F721E0A6E2B1E001C01D92AB3A28
:1001E000B207E1F710E0C9EDD0E003C02197FE01AE
:1001F000D8DDC83DD107D1F76DD4D9CD01CF82303C
:1002000089F018F4813051F00895833019F084306A
:1002100009F008958CB58F7D8CBD08958AB58F77D0
:100220008ABD08958AB58F7DFBCF1F93CF93DF934F
:10023000E7EAF1E09491EDE9F1E0D491E3E9F1E04E
:10024000C491CC23B1F0182F992311F0892FD7DF57
:10025000EC2FF0E0EE0FFF1FE457FE4FA591B49195
:100260008FB7F894EC91111108C0D095DE23DC9380
:100270008FBFDF91CF911F910895DE2BF8CFCF93E1
:10028000DF93282F30E0F901EA55FE4F8491F90100
:10029000E456FE4FD491F901EE56FE4FC491CC23A3
:1002A00099F08111ACDFEC2FF0E0EE0FFF1FEA5761
:1002B000FE4FA591B491EC91ED2381E090E009F41B
:1002C00080E0DF91CF91089580E090E0FACF80E068
:1002D000D6DF019719F481E08093770108953FB745
:1002E000F8948091270190912801A0912901B09163
:1002F0002A0122B708B601FE05C02F3F19F001966A
:10030000A11DB11D3FBFBA2FA92F982F8827BC016F
:10031000CD01620F711D811D911D42E0660F771F97
:10032000881F991F4A95D1F708958F929F92AF9297
:10033000BF92CF92DF92EF92FF924B015C01CFDF31
:100340006B017C01CCDF6C197D098E099F09683E29
:10035000734081059105B0F321E0821A9108A1084C
:10036000B10888EEC80E83E0D81EE11CF11C811490
:100370009104A104B10431F7FF90EF90DF90CF908A
:10038000BF90AF909F908F9008950895E5E4F1E0BD
:1003900011921186138A81E0EF34F807C9F781E0E2
:1003A00080934501809359018093470180935B01BD
:1003B0008093490180935D0180934B0180935F019D
:1003C00080934D018093610180935001809352018D
:1003D00080935401809356010895CF92DF92EF925B
:1003E000FF920F931F93CF93DF932091A8012111C8
:1003F0001DC06B017C0110E000E081E016DFD0E061
:10040000C0E0CC16DD0619F000002196FACF80E09E
:100410000CDF90E080E0C817D90719F000000196C2
:10042000FACF0F5F1F4FE016F1063CF7DF91CF9137
:100430001F910F91FF90EF90DF90CF90089530E0E3
:1004400020E090E0AC01022E01C0440F0A94EAF7CC
:1004500047FF0CC0C39AC49AC4982F5F3F4F2830FF
:10046000310581F7C39AC49AC4980895C398F3CF0D
:100470008130910581F488E9E2DF8CE5E0DF86EBED
:10048000DEDF8FE5DCDF8FE5DADF86EBD8DF8CE5BA
:10049000D6DF88E9D4CF8230910581F480E3CFDFC5
:1004A0008EE3CDDF83EBCBDF8DE5C9DF8DE5C7DFE5
:1004B00083EBC5DF8EE3C3DF80E3ECCF83309105B0
:1004C00081F488E1BCDF88E3BADF84E3B8DF84E34A
:1004D000B6DF84E3B4DF84E3B2DF88E3B0DF88E132
:1004E000D9CF892B81F480E0AADF80E0A8DF80E00B
:1004F000A6DF80E0A4DF80E0A2DF80E0A0DF80E074
:100500009EDF80E0C7CF0895C498C398C49AC39A69
:100510000895C49AC39AC398C4980895CF93DF935B
:10052000C82FD62FF6DF88E78ADF80E088DF80EBF0
:100530008D0F85DF8C2F82958F70806180DF8C2FEF
:100540008E7081607CDFDF91CF91DECF683008F460
:10055000E5CF0895DEDF88E772DF80E470CFEF92A9
:10056000FF920F931F93CF93DF93EC018C01060F43
:10057000171F0C171D078CF06C2F80E0E7DFEADFF8
:1005800080E1E82EF12C90E080E072DF81E0E81A53
:10059000F108C9F7B9DF2196ECCFDF91CF911F9118
:1005A0000F91FF90EF900895BF92CF92DF92EF925C
:1005B000FF920F931F93CF93DF93B82E8B01EB0124
:1005C00077FD279693E0D595C7959A95E1F7C801F1
:1005D000877099276C2F892BA9F18B2DB7DFBADF94
:1005E000C80168E070E0B6DBD82F8EE7C82ED12CAA
:1005F000E12CF12CD701C6010D2E04C0880F991FE4
:10060000AA1FBB1F0A94D2F71ADF7EDF6C2F6F5F21
:100610008B2D9CDF9FDF88E08D1BA701960104C016
:1006200055954795379527958A95D2F7C90107DFE4
:10063000DF91CF911F910F91FF90EF90DF90CF90BE
:10064000BF9062CF8B2D82DF85DF8EE7F0CF67E032
:100650008091A90163DF7EDF80E0F1DE80E0EFDEE4
:1006600080ECEDDE80ECEBDE80ECE9DE80ECE7DEBA
:1006700080ECE5DE80EFE3DE80EFE1DE80EFDFDEC1
:1006800080EFDDDE80ECDBDE80ECD9DE80ECD7DED7
:1006900080ECD5DE80ECD3DE80E0D1DE80E0CFDE02
:1006A00033CFAF92BF92CF92DF92EF92FF920F9330
:1006B0001F93CF93DF93D82FE62E6A01F12CF6011A
:1006C000EF0DF11D8081882369F1C0E0803251F087
:1006D000C4EDC80FC03130F0CEECC80FC93210F0F5
:1006E000C5ECC80FDF3710F0E394D0E06E2D8D2FEE
:1006F0002DDF30DF8C2F90E066E070E01ADB10E039
:1007000000E0825E9F4F5C01F501E00FF11F8491D4
:1007100096DE0F5F1F4F06301105B1F7F5DEDA5F89
:10072000F394CDCFDF91CF911F910F91FF90EF9078
:10073000DF90CF90BF90AF900895CF93C82FE9DEA0
:1007400088E77DDE80E07BDE8C2F79DECF91DCCE0A
:10075000CF93DF93C0EB8C2FF0DF80E0EEDF80E102
:10076000ECDFF8DED0E080E06ADEDF5FD038D9F77A
:10077000CBDECF5FC83B79F7DF91CF910895BB9A6D
:10078000BC9A8EEADADF80E0D8DF80E1D6DF80E451
:10079000D4DF81E8D2DF8FECD0DF81EACEDF88ECD6
:1007A000CCDF86EACADF88EAC8DF8FE3C6DF83EDE5
:1007B000C4DF80E0C2DF85EDC0DF80E8BEDF89ED09
:1007C000BCDF81EFBADF8AEDB8DF82E1B6DF8BED07
:1007D000B4DF80E4B2DF80E2B0DF82E0AEDF8DE83C
:1007E000ACDF84E1AADF84EAA8DF86EAA6DF8FEA2D
:1007F000A4CFEF92FF920F931F93CF93DF93CDB7C8
:10080000DEB72A970FB6F894DEBF0FBECDBFF82E25
:10081000E62ECA018E010F5F1F4F2AE0F8011192E8
:100820002A95E9F74AE0B801C0D8A8016E2D8F2DAE
:1008300038DF2A960FB6F894DEBF0FBECDBFDF912A
:10084000CF911F910F91FF90EF900895CF93DF9379
:10085000EC01109277011092400110923F0110922A
:100860007A0110927B0110927C0110927D0110920E
:100870009C0110929D0110929E0110929F01109276
:1008800079011092780110926E0110926D0188E04A
:1008900090E0909366008093650010923201109270
:1008A00031019093300180932F0182E090E090938A
:1008B0006800809367001092360110923501109203
:1008C00038011092370110923401109233011092C6
:1008D00076011092750110927401109273011092BA
:1008E000700110926F0181E08093640080E490E0D9
:1008F0009093AA018093A9012BDF48EE50E063E0BA
:1009000080E1CFDE4FE650E064E080E1CADE48EEF1
:1009100050E065E080E1C5DEAE0164E070E085E5B1
:1009200090E067DF60E273E08EE190E056DD68E51D
:1009300072E08EE190E051DD60E971E08EE190E0DF
:100940004CDD6CEB72E080E090E0EFDCDF91CF916A
:10095000FFCE1F920F920FB60F9211242F933F9349
:100960008F939F93AF93BF9380912B0190912C0114
:10097000A0912D01B0912E013091260123E0230F8B
:100980002D3758F50196A11DB11D209326018093A6
:100990002B0190932C01A0932D01B0932E018091F7
:1009A000270190912801A0912901B0912A01019677
:1009B000A11DB11D8093270190932801A0932901C7
:1009C000B0932A01BF91AF919F918F913F912F9149
:1009D0000F900FBE0F901F90189526E8230F0296D8
:1009E000A11DB11DD2CF1F920F920FB60F921124ED
:1009F0002F933F934F935F936F937F938F939F9327
:100A0000AF93BF93EF93FF93E0916200F091630087
:100A10000995FF91EF91BF91AF919F918F917F9138
:100A20006F915F914F913F912F910F900FBE0F905B
:100A30001F9018951F920F920FB60F9211242F93AB
:100A40003F934F935F936F937F938F939F93AF9356
:100A5000BF93EF93FF93E0916000F09161000995DF
:100A6000FF91EF91BF91AF919F918F917F916F9186
:100A70005F914F913F912F910F900FBE0F901F905C
:100A800018951F920F920FB60F9211242F933F9338
:100A90004F935F936F937F938F939F93AF93BF9386
:100AA000EF93FF9382E0EBDB019719F481E08093F1
:100AB0007701FF91EF91BF91AF919F918F917F91BE
:100AC0006F915F914F913F912F910F900FBE0F90BB
:100AD0001F90189578948AB582608ABD8AB5816026
:100AE0008ABD83B7826083BF83B7816083BF89B7C4
:100AF000826089BF80B7826080BF80B7816080BF1D
:100B0000329A319A309A379A8CB580648CBD82E0E3
:100B100087BB81E085BB8BB780628BBF789478EE12
:100B2000872E73E0972EA12CB12C29DE11DE4BE726
:100B300050E061E080E0B5DD45E850E062E084E04F
:100B4000B0DD41E950E064E080E0ABDD61E085E5E7
:100B5000E5DC00DD81E090E08BDC90E080E088DC8B
:100B600081E090E085DCD0DC62E085E5D7DCF2DC7A
:100B700090E080E07DDC82E090E07ADC90E080E054
:100B800077DCC2DC63E085E5C9DCE4DC90E080E092
:100B90006FDC90E080E06CDC81E090E069DC90E06C
:100BA00080E066DC81E090E063DCAEDC80E690E033
:100BB0009093AA018093A9014ADD8FB7F894C09061
:100BC0002B01D0902C01E0902D01F0902E018FBFD1
:100BD00080E055DB019709F0C5C12FB7F8948091EB
:100BE0002B0190912C01A0912D01B0912E012FBFCE
:100BF0008C199D09AE09BF09813D9740A105B1053A
:100C00003CF382E03CDB019709F098C160E090E0A2
:100C100080E006D760E081E090E002D74EE950E046
:100C200060E088E03EDDC1E080E029DB0197E1F390
:100C3000C11157C5C0E7D0E01C2F8C2F80528831DE
:100C400020F4BE0188E690E0AFDC1032A9F463E046
:100C500084E664DC7FDC90E080E00ADC55DC64E064
:100C600084E65CDC77DC90E080E002DC4DDC64E66E
:100C700070E08EE190E0B1DB60E0812F4FDC6ADC58
:100C800083E090E0F5DB90E080E0F2DB3DDCDFDC50
:100C900064E170E080E090E048DB219769F660E075
:100CA00080E03CDC57DC90E080E0E2DB90E080E03C
:100CB000DFDB2ADC4BEC50E066E080E0F2DC47ED65
:100CC00050E067E080E0EDDC6CED75E080E090E006
:100CD0002CDB55DD3DDD1092A7011092A60110928C
:100CE000A50110929C0110929D0110929E011092FC
:100CF0009F0181E090E090936A00809369001092D8
:100D0000A4011092A30110927F0110927E01109213
:100D100085011092840110928B0110928A01109229
:100D200091011092900110929701109296012EDB82
:100D300081E090E08BDD87E691E090936100809305
:100D4000600085B78C7F816085BF8BB780648BBF67
:100D500022242394312C8091A701811123C48091F6
:100D60007A0190917B01A0917C01B0917D01019667
:100D7000A11DB11D80937A0190937B01A0937C010A
:100D8000B0937D0180919C0190919D01A0919E0165
:100D9000B0919F010196A11DB11D80939C0190937C
:100DA0009D01A0939E01B0939F0180917801909145
:100DB00079010196909379018093780117B8369A5A
:100DC0003699FECF84B195B18C3A93401CF481E002
:100DD0008093770182E053DA019799F480E04FDA4B
:100DE000019719F481E0809377018091A901909196
:100DF000AA018F3691052CF401969093AA01809355
:100E0000A90180E03CDA019799F482E038DA019791
:100E100019F481E0809377018091A9019091AA0152
:100E2000823091052CF001979093AA018093A9013B
:100E30008091750190917601892BD1F45FD5A50140
:100E4000940115D6673E73408105910589F4809120
:100E50007301909174011816190654F430927601BA
:100E6000209275018FE690E090937201809371015A
:100E700055E4E52E51E0F52ED0E0C0E0809167000A
:100E8000909168008C179D070CF477C060917301F6
:100E90006C0F80916F01880F880F880F57DB5ADB2A
:100EA00000916D0110916E016E01E894C1F880917E
:100EB000650090916600801791070CF458C0F70107
:100EC000E00FF11F8081882309F44EC080916700F4
:100ED000909168008C179D0731F510D5209169001D
:100EE00030916A0047EE442E43E0542E421A530AD2
:100EF000052C000C66087708A5019401B8D54616A4
:100F00005706680679067CF4EEE7F1E090E080E0B1
:100F1000208131812130310509F065C40196369672
:100F200085309105A9F781E090E0C114D10411F05A
:100F300082E090E09DDA0F5F1F4FB9CFC091A8010A
:100F4000C11108C081E08093A80141EB50E060E04E
:100F500080E268CE1092A8014CEB50E060E087E19F
:100F6000A0DB62CEC0E060CE90E080E0E3CFCCDAE0
:100F700021962AE0E20EF11C81CF4091A50150910B
:100F8000A60166E070E090E080E033DC009165004F
:100F90001091660080916D0190916E01081B190BF4
:100FA000B8E0EB2EF12CE01AF10AD0E0C0E0CE154B
:100FB000DF051CF44CDB2296FACF809178019091EA
:100FC000790103977CF11092790110927801809158
:100FD000750190917601892B29F1C0917101D09111
:100FE000720160E08C2F9ADAB5DA83E090E040DAA3
:100FF00090E080E03DDA88DA2197D0937201C093C7
:101000007101CD2B79F4109276011092750160E098
:1010100080E084DA9FDA90E080E02ADA90E080E0F5
:1010200027DA72DA8091690090916A0001976BEF7C
:101030007FEF7FD6845A9F4F092E000CAA0BBB0B63
:1010400040917A0150917B0160917C0170917D010A
:10105000481759076A077B078CF110927A011092A2
:101060007B0110927C0110927D0180916F01909123
:101070007001E0906700F0906800C0917301D0911A
:10108000740120916400222309F4EAC12EE030E0CB
:10109000201B310B821793070CF4DCC11092640003
:1010A000B701CE015CDA2196D0937401C09373012D
:1010B000B701809173019091740151DA80917701A9
:1010C0008823C9F080913F0190914001892B99F4C8
:1010D0003092400120923F018091A9019091AA0194
:1010E0000896909342018093410188E390E09093A9
:1010F00044018093430180919C0190919D01A091B6
:101100009E01B0919F010297A105B1050CF40FC398
:1011100010929C0110929D0110929E0110929F01CD
:1011200080913F01909140010197D9F4C091430112
:10113000D091440110914101BE01812F9091420153
:1011400033DA209709F095C160E0812FE7D902DA00
:1011500080E075D9D9D91092400110923F011092C8
:10116000770180916F0190917001A3E0880F991F22
:10117000AA95E1F790933E0180933D01209177017C
:10118000222309F4DFC10091410110914201B8010D
:10119000681B790B77FF02C0695F7F4FF3E075959D
:1011A0006795FA95E1F7072E000C880B990B35D55A
:1011B0006B017C0160916D0170916E01072E000C36
:1011C000880B990B2AD59B01AC01C701B6018ED4BF
:1011D000F1D470933C0160933B01C0914301D091E5
:1011E0004401BE01D7FF02C0695F7F4FE3E0759500
:1011F0006795EA95E1F7072E000C880B990B0DD542
:101200006B017C016091730170917401072E000CD9
:10121000880B990B02D59B01AC01C701B60165D4BF
:10122000C9D470933A01609339018091750190910E
:101230007601019709F04FC0809171019091720180
:10124000081719070CF447C00896801791070CF48B
:1012500042C029970CF03FC051D323E630E040E074
:1012600050E005D4AB01BC014F5F5F4F6F4F7F4F24
:101270008091A5019091A6014E315105610571053E
:101280000CF0FDC0C2969093A6018093A50160E981
:1012900071E08EE190E0A1D86CE271E08EE190E027
:1012A0009CD868EC70E08EE190E097D864E670E03E
:1012B0008EE190E092D8109276011092750160E074
:1012C000809171012BD946D990E080E0D1D890E08F
:1012D00080E0CED819D9209141013091420180910E
:1012E0003D0190913E01281739070CF42BC1C091A4
:1012F0003901D0913A01D7FD25C1E0906700F09007
:101300006800EC16FD060CF41DC100913B01109124
:101310003C010930110508F015C1CE016AE070E00A
:1013200008D58B5B9E4FFC01E00FF11F8081882365
:1013300009F408C1C230D10509F0B4C08091370169
:1013400090913801019690933801809337018091F4
:101350003701909138018530910521F43092680071
:10136000209267004091350150913601443051057B
:1013700031F4059721F4109268001092670083E021
:1013800090E08C1B9D0B6AE070E0D3D44091A501E6
:101390005091A601840F951F9093A6018093A501FB
:1013A00080913301909134010196909334018093A0
:1013B0003301D0907301C09074016C2F6D0D6F5F7D
:1013C000822FC4D8C7D880E03AD89ED864E670E0AF
:1013D0008EE190E002D810927701109240011092B5
:1013E0003F01109242011092410187E090E09093FA
:1013F000440180934301CE016AE070E09AD48B5B94
:101400009E4FFC01E00FF11F10824091650050914A
:10141000660080916D0190916E010817190709F01F
:1014200066C08091310190913201FA01EB5BFE4F71
:101430009A01201731070CF445C06081611140C04A
:10144000628561113DC0648961113AC02150310942
:101450003197EFCF01969093700180936F0128CE62
:101460001816190624F081E08093640019CE0197C4
:10147000F2CF2197D0934401C093430172CE4C33F5
:101480005105610571051CF48C599F4FFCCE4A35FE
:101490005105610571051CF48A569F4FF4CE845D99
:1014A0009E4FF1CEC130D10509F051CF8091350169
:1014B000909136010196909336018093350147CF84
:1014C000C901C4CF90933201809331019C01201B4C
:1014D000310B60916F0170917001260F371F3093AF
:1014E000700120936F0190936E0180936D014017FE
:1014F000510721F580916D0190916E0130912F017E
:1015000020913001FC01EB5BFE4F4817590774F046
:101510006191611108C06185611105C06389611124
:1015200002C00196F2CF382F292FFBCF30932F0125
:10153000209330013093650020936600B7018D2D14
:101540009C2D0DD8CEE7D1E088819981019709F0D3
:10155000E7C00C811D81B8018A819B8125D80F5F6E
:101560001F4F1D830C83083311050CF4D9C067E0AD
:101570008A81D4D7EFD780E062D7C6D71982188284
:101580002A813B818091A9019091AA01821793073A
:101590000CF0C6C04096281739070CF0C1C081E096
:1015A0008093A70190E080E033D2C82FD0E0DC2FF9
:1015B000CC27D093A401C093A30181E090E028D26E
:1015C000C82BD093A401C093A3016091A501709191
:1015D000A601C617D7077CF47093A4016093A301FA
:1015E00081E090E01DD26091A60190E080E018D2E9
:1015F00081E08093A0018091A3019091A401909338
:10160000A2018093A101A4D846EE50E061E08BE0F6
:1016100048D847EF50E062E08BE043D846EE50E018
:1016200063E08BE03ED84DE051E065E085E239D8DB
:101630004091A5015091A60165E070E08BE490E037
:10164000D8D88091A00181110EC048E051E067E038
:1016500085E127D84091A1015091A20167E070E097
:1016600088E590E0C6D8D0E0C0E0BE0182E390E01B
:10167000B4D6E296C83E93E0D907B9F760ED77E0BB
:1016800080E090E052D68091A001882351F160D88B
:1016900046EE50E061E08AE004D844E151E063E0C6
:1016A0008AE0FFD746EE50E067E08AE0FAD7409143
:1016B000A1015091A20165E070E082E390E099D829
:1016C000CCEBD2E0BE018EE190E087D6E297C83C39
:1016D000D105C1F71092A0016CE87AE080E090E0BB
:1016E00024D636D88EEA29D8379885B7877E806188
:1016F00085BF85B7806285BF85B7806285BF8895C5
:1017000085B78F7D85BF85B78F7D85BF379A8FEA77
:1017100014D880E090E0892B09F407CA71D405CA77
:1017200026968CE991E08C179D0709F00DCF8091EA
:101730003301909134010E9751F510927F01109270
:101740007E01109285011092840110928B011092FB
:101750008A011092910110929001109297011092BB
:10176000960110929D0110929C01809169009091C8
:101770006A00019680319105DCF490936A008093B1
:1017800069008091690090916A0060D8FFD58091CE
:101790007301909174018530910569F4809167001F
:1017A00090916800029781F481E08093A701D3CAE9
:1017B0008FE090E0E2CF8630910561F48091670080
:1017C00090916800019781F38091A7018111ECCF7E
:1017D0003ED7C5CA0797C1F780916700909168000E
:1017E000892B91F7E1CF66E070E0A3D2FC01E258CB
:1017F000FE4F81E090E09183808380916D01909114
:101800006E019801281B390B80916F019091700136
:10181000820F931F23E0880F991F2A95E1F7049602
:101820009383828320917301309174012C0F3D1FAB
:101830002F5F3F4F43E0220F331F4A95E1F7358377
:10184000248371CB80916D0190916E019093320150
:1018500080933101809165009091660090933001F2
:1018600080932F0108958F929F92AF92BF92CF9253
:10187000DF92EF92FF92CF93DF93EC016881798141
:101880008A819B81611571058105910521F464E2CE
:1018900079ED8BE597E02DE133EF41E050E0E7D0C3
:1018A00049015A0127EA31E440E050E0C7D06B011A
:1018B0007C012CEE34EF4FEF5FEFC501B401BED0D9
:1018C000C60ED71EE81EF91EF7FE06C081E0C81A34
:1018D000D108E10880E8F80AC882D982EA82FB824E
:1018E000C701B6019F77DF91CF91FF90EF90DF9016
:1018F000CF90BF90AF909F908F9008958F929F92BE
:10190000AF92BF92CF92DF92EF92FF9260916B0005
:1019100070916C0080916D0090916E006115710561
:101920008105910521F464E279ED8BE597E02DE1E5
:1019300033EF41E050E09BD049015A0127EA31E4FE
:1019400040E050E07BD06B017C012CEE34EF4FEF98
:101950005FEFC501B40172D0C60ED71EE81EF91E96
:10196000F7FE06C081E0C81AD108E10880E8F80A4D
:10197000C0926B00D0926C00E0926D00F0926E000D
:10198000C701B6019F77FF90EF90DF90CF90BF9097
:10199000AF909F908F90089560936B0070936C0050
:1019A00080936D0090936E000895BB274A3031F408
:1019B000992322F4BDE2909581959F4F01C0BB27EA
:1019C000FB015527AA27880F991FAA1FA41710F0FB
:1019D000A41B83955051B9F7A05DAA3308F0A95D07
:1019E000A193009779F7B111B1931192CB0100C087
:1019F000DC01FC01672F71917723E1F7329704C076
:101A00007C916D9370836291AE17BF07C8F3089500
:101A1000E199FECF9FBB8EBBE09A99278DB30895C5
:101A2000262FE199FECF1CBA9FBB8EBB2DBB0FB6F4
:101A3000F894E29AE19A0FBE01960895EE27FF27E7
:101A4000AA27BB2708C0A20FB31FE41FF51F220F50
:101A5000331F441F551F969587957795679598F383
:101A60007040A9F7009799F7BD01CF010895052EA1
:101A700097FB16F400940FD057FD05D014D007FC47
:101A800002D046F408C050954095309521953F4FBF
:101A90004F4F5F4F089590958095709561957F4F5A
:101AA0008F4F9F4F0895A1E21A2EAA1BBB1BFD0169
:101AB0000DC0AA1FBB1FEE1FFF1FA217B307E4072D
:101AC000F50720F0A21BB30BE40BF50B661F771F85
:101AD000881F991F1A9469F7609570958095909565
:101AE0009B01AC01BD01CF0108955058BB27AA2727
:101AF0000ED0E5C0D6D030F0DBD020F031F49F3FDF
:101B000011F41EF4CBC00EF4E095E7FBC1C0E92F41
:101B1000E7D080F3BA17620773078407950718F0B8
:101B200071F49EF5FFC00EF4E0950B2EBA2FA02D98
:101B30000B01B90190010C01CA01A0011124FF277A
:101B4000591B99F0593F50F4503E68F11A16F04075
:101B5000A22F232F342F4427585FF3CF4695379574
:101B60002795A795F0405395C9F77EF41F16BA0B39
:101B7000620B730B840BBAF09150A1F0FF0FBB1FE7
:101B8000661F771F881FC2F70EC0BA0F621F731F30
:101B9000841F48F4879577956795B795F7959E3F8D
:101BA00008F0B3CF9395880F08F09927EE0F97951B
:101BB0008795089504D06894B111B5C0089598D060
:101BC00088F09F5790F0B92F9927B751A0F0D1F026
:101BD000660F771F881F991F1AF0BA95C9F712C0B0
:101BE000B13081F09FD0B1E008959CC0672F782F6D
:101BF0008827B85F39F0B93FCCF38695779567951C
:101C0000B395D9F73EF490958095709561957F4F87
:101C10008F4F9F4F0895E89409C097FB3EF490952D
:101C20008095709561957F4F8F4F9F4F9923A9F0B5
:101C3000F92F96E9BB279395F69587957795679544
:101C4000B795F111F8CFFAF4BB0F11F460FF1BC088
:101C50006F5F7F4F8F4F9F4F16C0882311F096E91B
:101C600011C0772321F09EE8872F762F05C06623C9
:101C700071F096E8862F70E060E02AF09A95660F82
:101C8000771F881FDAF7880F9695879597F908953B
:101C900097F99F6780E870E060E008959FEF80EC1F
:101CA000089500240A9416161706180609060895C2
:101CB00000240A9412161306140605060895092E28
:101CC0000394000C11F4882352F0BB0F40F4BF2B97
:101CD00011F460FF04C06F5F7F4F8F4F9F4F0895D7
:101CE00057FD9058440F551F59F05F3F71F04795CD
:101CF000880F97FB991F61F09F3F79F087950895B2
:101D0000121613061406551FF2CF4695F1DF08C0D0
:101D1000161617061806991FF1CF869571056105ED
:101D200008940895E894BB2766277727CB0197F995
:101D300008950024552704C0080E591F880F991FC5
:101D4000009729F076956795B8F37105B9F7802D5E
:101D5000952F089597FB072E16F4009406D077FD73
:101D600008D00BD007FC05D03EF4909581959F4F8D
:101D70000895709561957F4F0895AA1BBB1B51E193
:101D800007C0AA1FBB1FA617B70710F0A61BB70BEB
:101D9000881F991F5A95A9F780959095BC01CD0190
:101DA0000895EE0FFF1F0590F491E02D0994F8942B
:021DB000FFCF63
:101DB200C501C50101080002000100010000002068
:101DC2004C204520562045204C20005320502041D5
:101DD2002043204500412054205420412043204BE1
:101DE20000616E6468206A61636B736F6E002D48D8
:101DF2004947482053434F52452052455345542D9D
:101E0200002D2D204D555445202D2D002D2D2053D4
:101E12004F554E44204F4E202D2D00696E73706930
:101E2200726564206268002F6562626F67676C6525
:101E3200732E636F6D002D2D2D2D2D2D2D2D2D2DFE
:101E42002D2D2D2D2D2D00472041204D20452020C8
:101E52004F20562045205200484947482053434FBF
:101E620052453A00204E455720484947482053439F
:061E72004F524520000064
:00000001FF
