:1000000068C3A3C8CFC880C37FC355C87DC37CC3A2
:100010007BC37AC379C378C377C376C375C3000043
:1000200000000000000008080800000060600000F8
:10003000002010080402003E5149453E0000427F66
:100040004000004261514946002141454B310018B2
:1000500014127F10002745454539003C4A49493074
:10006000000171090503003649494936000649492E
:10007000291E000036360000007C1211127C007F21
:1000800049494936003E41414122007F4141221CFD
:10009000007F49494941007F09090901003E414962
:1000A000497A007F0808087F0000417F4100002056
:1000B00040413F01007F08142241007F4040404002
:1000C000007F020C027F007F0408107F003E414148
:1000D000413E007F09090906003E4151215E007F33
:1000E000091929460046494949310001017F0101AA
:1000F000003F4040403F001F2040201F003F40384D
:10010000403F002054545478007F4844443800381D
:100110004444442000384444487F00385454541820
:1001200000087E0901020018A4A4A47C007F080432
:1001300004780000447D4000004080847D00007F02
:10014000102844000000417F4000007C041804781F
:10015000007C0804047800384444443800FC24241B
:1001600024180018242418FC007C08040408004803
:100170005454542000043F444020003C4040207C24
:10018000001C2040201C003C4030403C0044281013
:100190002844001CA0A0A07C3C7EFFFFFFFF7E3C0B
:1001A0003C7EFFFFE7E7C3427CFE3F0F0F3FFE7C34
:1001B00042C3E7E7FFFF7E3C3E7FFCF0F0FC7F3E62
:1001C0000E770E08180824082E0837083F084B0839
:1001D00054085D0868086F0877080E141814241472
:1001E0002E1437143F144B1454145D1468117711F6
:1001F0000E1F181F241F2E1F5D1F68196F197719F6
:1002000068256F2577250E2B182B242B2E2B372BAB
:100210003F2B4B2B542B5D2B682E772E0E37183728
:1002200024372E3737373F374B3754375D376837EA
:100230006F37000C0C17171F1F22222D2D387CFE44
:1002400022EBFF62EA7C7CC20A83830A827C1C3C2C
:100250007E666662401010107C381000002060FF3F
:1002600060200010387C10101000000406FF060407
:100270000000000000000000F804F414141414142A
:1002800014141413100F00000000000000000F10E1
:10029000131414141414141414E404E4141414148F
:1002A000141414141414141414141414141414140E
:1002B0001414141414E404E414141414141414146E
:1002C00014141414141414141414141414141414EE
:1002D0001414E404E414141414141414141414144E
:1002E00014141414141414141414141414E404F82A
:1002F0000000000000000000FF00FF000000000000
:1003000000000040A0A0A0A0A0A0A0A0A0A0A0A02D
:10031000400000000000000000FF00FF000000009F
:100320000000000040A0A0A0A0A0A0A040000000ED
:1003300000000000007F807F00000000000000003F
:1003400040A0A0A0A0A0A0A0A0400000000000002D
:1003500000007F807F0000000000000000C020A09F
:10036000A0A0A020C00000000000000000FF00FFCF
:100370000000000000000000FF00FF00000000007F
:10038000000000000000000000000000000000006D
:10039000000000000000000000FF00FF000000005F
:1003A000000000000000000000000000000000004D
:1003B000000000000000000000000000000000003D
:1003C000000000000000000000000000000000002D
:1003D000000000000000000000000000001F202FAF
:1003E0002F2F2F201F0000000000000000FF00FF43
:1003F0000000000000000000FF00FF0000000000FF
:10040000000000FE01FE0000000000000000FE01F0
:10041000FE000000000000000007080700000000C8
:1004200000000000FE01FD050505050505050505A3
:10043000050502000202020202020002050505058E
:1004400005050505050505FD01FE0000000000008D
:100450000000FE013E40404040404040404040409F
:1004600040404040800000000000000000FF00FF0E
:100470000000000000000000FF00FF00000000007E
:100480000000007F807F00000000000000007F80EF
:100490007F0000000000000000C020C0000000003D
:1004A000000000007F809FA0A0A0A0A0A0A0A0A00E
:1004B000A0A0A0A0A0A0A0A0A0A0A0A0A0A0A0A03C
:1004C000A0A0A0A0A0A0A09F807F0000000000002E
:1004D00000007F807E010101010101010101010194
:1004E00001010101000000000000000000FF00FF0A
:1004F0000000000000000000FF00FF0000000000FE
:1005000000000000000000000000000000000000EB
:10051000000000000000000000FF00FF00000000DD
:1005200000000000000000000000000000000000CB
:1005300000000000000000000000000000000000BB
:1005400000000000000000000000000000000000AB
:1005500000000000000000000000000000F804F4AB
:10056000F4F4F404F80000000000000000FF00FFB5
:100570000000000000000000FF00FF00000000007D
:10058000000000020505050505050505050505052D
:10059000020000000000000000FF00FF000000005B
:1005A0000000000002050505050505050200000024
:1005B0000000000000FE01FE00000000000000003E
:1005C00002050505050505050502000000000000FF
:1005D0000000FE01FE000000000000000003040512
:1005E00005050504030000000000000000FF00FFF7
:1005F00000000000000000001F20272828282828CD
:10060000282828282828282828282828282828286A
:100610002828282828282828282720272828282864
:10062000282828282828282828282828282828284A
:100630002828282828272027282828282828282844
:10064000282828282828282828282828282828282A
:100650002828C700FF0000000000000000F008C8C4
:100660002828282828282828282828282827201F1C
:100670000000000000360000C0E0F0F8FCFCFEFEC8
:10068000FEFFFFFFFFFEFEFEFCFCF8706000FEFFB9
:10069000FFFFFFFFFFFFFFFFFFEFEFC78783830130
:1006A000000010387C38100000000010387C381032
:1006B00000070F1F3F7F7F7F7FFFFFFFFFFFFF7F51
:1006C0007F3F3F3E1E1E0202020202020102040898
:1006D000102011241FBECFE5D2E0DEBFCDBF11E058
:1006E000A0E6B0E0E4EFFEE102C005900D92A0307C
:1006F000B107D9F721E0A0E0B1E001C01D92AF370A
:10070000B207E1F790D5F4CB7BCC3FB7F89480915A
:100710003F0190914001A0914101B091420122B767
:1007200008B601FE05C02F3F19F00196A11DB11DAD
:100730003FBFBA2FA92F982F8827BC01CD01620F88
:10074000711D811D911D42E0660F771F881F991F43
:100750004A95D1F70895CF92DF92EF92FF92CF930F
:10076000DF936B017C01D1DFEB01CFDF6C1B7D0BD5
:10077000683E7340A0F0C114D104E104F10439F4DF
:10078000DF91CF91FF90EF90DF90CF90089581E0BF
:10079000C81AD108E108F108C851DC4FE6CFC114EE
:1007A000D104E104F10409F7EBCF2FB7F89460917D
:1007B0003B0170913C0180913D0190913E012FBF22
:1007C0000895109254011092490110924B01109219
:1007D0004A01EEE4F1E01182108213821282158246
:1007E000148210924D0110924C01E4E6F1E082E493
:1007F00080832CE12183A7E5B1E083E090E01196AE
:100800009C938E9337E33283238313969C938E932A
:1008100012974DE44483258315969C938E931497E9
:10082000368388E2878317961C921E921697109241
:1008300046011092450108951092630110926C01D7
:10084000E2E0F1E081E0819391E0EA33F907D9F742
:10085000809300018093010108950F931F93CF931C
:10086000DF93262F26952695269530E0677048E081
:1008700050E0461B51090FEF10E0F80102C0F5955A
:10088000E7954A95E2F7AF0102C0000F111F6A9584
:10089000E2F7A82FB0E0B9017695762F6627779515
:1008A00067956A0F7B1FD0E0C0E090E080E06F5852
:1008B0007D4FFB01EC0FFD1FE491F0E0E023F123FD
:1008C000EF2B11F081E090E02196C830D10589F737
:1008D0002F5F3F4F3695322F2227379527952A0FC6
:1008E0003B1F70E060E02F583D4FF901E60FF71F06
:1008F000E491F0E0E423F523EF2B11F081E090E0A8
:100900006F5F7F4F6830710581F7DF91CF911F9145
:100910000F91089530E020E090E0AC01022E01C07C
:10092000440F0A94EAF747FF0CC0C39AC49AC498CC
:100930002F5F3F4F2830310581F7C39AC49AC4987E
:100940000895C398F3CFC498C398C49AC39A0895DE
:10095000C49AC39AC398C4980895CF93DF93C82FBD
:10096000D62FF6DF88E7D6DF80E0D4DF80EB8D0F6F
:10097000D1DF8C2F82958F708061CCDF8C2F8E70B1
:100980008160C8DFDF91CF91DECFE2DF88E7C2DF91
:1009900080E4C0CF2F923F924F925F926F927F92EE
:1009A0008F929F92AF92BF92CF92DF92EF92FF927F
:1009B0000F931F93CF93DF9300D000D000D0CDB71B
:1009C000DEB70FEFF12CE12C10E0712C612C38E038
:1009D000432E512C4AE6A42E41E0B42E612F80E034
:1009E000BCDFD3DFC701880F991F9C01205D3D4FFD
:1009F0003A832983AC014F5C5D4F5C834B831E823D
:100A00001D82B3016F587D4F1B01CD808D809E806C
:100A1000860C971C8D819E818038910509F4ACC1AC
:100A2000FC01E20DF31D649130916A01D0906B01DD
:100A3000C31608F44BC1E32FF0E0CF0107964D81B8
:100A40005E81841795070CF441C18D2D869586959E
:100A5000869581130CC14D2D47708D819E818E1B13
:100A60009F0BFC018091550190915601019709F06F
:100A7000FBC080915D0190915E01B3E0880F991FEA
:100A8000BA95E1F7E80FF91FE056FE4FE49101C077
:100A9000EE0F4A95EAF7262F2E2B56E05C1540F113
:100AA000113081F4809145019091460167E070E03A
:100AB0000EDA6D817E81860F971FFC01EB5AFD4F88
:100AC000E4912E2B409177015091780183E090E0E2
:100AD00063E0ED81FE81E25BFD4F161305C08417D4
:100AE000950714F47491272B6F5F01976730A9F76E
:100AF0008091490190E0F3E0880F991FFA95E1F7A2
:100B0000A4E6B1E04C91C41600F150E0BA01695F6F
:100B10007F4FED81FE816E177F07BCF011969C9090
:100B20001197692D6695669566956113D1C0E41B92
:100B3000F50BE80FF91FE25CFD4FE491492D47707A
:100B400001C0EE0F4A95EAF72E2B1296AA16BB06A5
:100B5000C9F6063008F04DC0E981FA8194904D2D18
:100B600050E0495F5F4F632F70E0695F7F4FEB811B
:100B7000FC818491981608F03CC0892D90E0DC013E
:100B8000AE5FBE4FEC91EE2309F4D1C0880F991FE0
:100B9000FC01EE53FE4F8490C810C9C084908D5361
:100BA0009E4F381508F0B0C0E491E617170611F013
:100BB0000CF0AAC0FC018490D81408F0A5C0849061
:100BC0008416150611F00CF09FC01C9280916C01E8
:100BD0008F5F80936C018091790190917A014091AF
:100BE000750150917601840F951F90937A0180933F
:100BF000790150910001513041F4163031F4E0ECAC
:100C0000F1E08491C812A3C0206E409101014130EF
:100C100081F4163071F4E1ECF1E08491C81641F0F2
:100C2000849190E001966D817E816817790709F4BF
:100C3000206E73E3D71210C03E3008F094C05130DC
:100C400059F41092000181E080935401809349018E
:100C500010924B0110924A01822F5CDEED81FE81E1
:100C60003196FE83ED83D1CEE856FE4F0FCF90E054
:100C70000196E816F90651F58D2D8770A201481BE3
:100C80005109CA014D815E814E1B5F0BFA014091F3
:100C900055015091560141305105A9F440915D0133
:100CA00050915E01A3E0440F551FAA95E1F7E40FB0
:100CB000F51FE056FE4FE491F0E002C0F595E79590
:100CC0008A95E2F7E8CEE856FE4FF5CFE0E0E3CEB6
:100CD00070E06F5F7F4F6E157F0509F036CFED81B5
:100CE000FE81E41BF50BE80FF91FE25CFD4FE49178
:100CF000F0E0492D4770B201641B710902C0F595FF
:100D0000E7956A95E2F720CFFC01A491EA2FE695DA
:100D1000E695E695E1130DC0FC0184918770E1E052
:100D2000F0E002C0EE0FFF1F8A95E2F72E2B93949E
:100D30001ECFFC01A491EA2FE695E695E695F0E03A
:100D40003196EE16FF0699F7FC018491F0CFE0ECA6
:100D5000F1E0849190E001966D817E81861797077E
:100D600009F053CF51CF303708F476CF413009F036
:100D700073CF1092010167CFE6DD1F5FFFEFEF1A1F
:100D8000FF0A0F5F3401183009F028CE26960FB6FF
:100D9000F894DEBF0FBECDBFDF91CF911F910F91B1
:100DA000FF90EF90DF90CF90BF90AF909F908F908B
:100DB0007F906F905F904F903F902F900895AF92EB
:100DC000BF92CF92DF92EF92FF920F931F93CF9338
:100DD000DF93D82F162F6A0100E0F601E00FF11D16
:100DE0008081882389F1C0E0803251F0C4EDC80FC2
:100DF000C03130F0CEECC80FC93210F0C5ECC80FCE
:100E0000DF3710F01F5FD0E0183018F4612F8D2FFE
:100E1000A4DDBBDD8C2F90E066E070E058D8F12CAB
:100E2000E12C825E9F4F5C01F501EE0DFF1D849168
:100E300071DD8FEFE81AF80A86E0E816F104A1F7F1
:100E400082DDDA5F0F5FC9CFDF91CF911F910F91E4
:100E5000FF90EF90DF90CF90BF90AF900895CF9329
:100E6000C82F76DD88E756DD80E054DD8C2F52DD1B
:100E7000CF9169CDCF93DF93C0EB8C2FF0DF80E073
:100E8000EEDF80E1ECDF81DDD0E080E043DDDF5F9D
:100E9000D038D9F758DDCF5FC83B79F7DF91CF91D4
:100EA0000895BB9ABC9A8EEADADF80E0D8DF80E151
:100EB000D6DF80E4D4DF81E8D2DF8FECD0DF81EAB7
:100EC000CEDF88ECCCDF86EACADF88EAC8DF8FE3B2
:100ED000C6DF83EDC4DF80E0C2DF85EDC0DF80E8E0
:100EE000BEDF89EDBCDF81EFBADF8AEDB8DF82E1DA
:100EF000B6DF8BEDB4DF80E4B2DF80E2B0DF82E00A
:100F0000AEDF8DE8ACDF84E1AADF84EAA8DF86EA01
:100F1000A6DF8FEAA4CF0F931F93CF93DF93042F05
:100F20001CDDD0E0C0E010E0C017D10734F42DDDA7
:100F300088E3F0DC08DD2196F7CFDF91CF911F9198
:100F40000F91089580916301811118C0809145012E
:100F5000909146018330910594F401969093460157
:100F60008093450181E0809363011FDC60935F0102
:100F700070936001809361019093620108951092D3
:100F8000460110924501EECF90B79F7D90BF811131
:100F900005C08FB7F894C1988FBF08958FB7F894A4
:100FA000C19AFACFCF92DF92EF92FF920F931F93E5
:100FB000CF93DF9320917E0121111DC06B017C0135
:100FC00010E000E081E0E0DFD0E0C0E0CC16DD061C
:100FD00019F000002196FACF80E0D6DF90E080E0A3
:100FE000C817D90719F000000196FACF0F5F1F4FFD
:100FF000E016F1063CF7DF91CF911F910F91FF9022
:10100000EF90DF90CF90089590E0FC01E453F94F0A
:101010002491FC01EA53F94FE491EE2371F0F0E0E2
:10102000EE0FFF1FEF58F94FA591B491EC91E22319
:1010300081E090E021F480E0089580E090E0089560
:10104000EF92FF920F931F93CF93DF93CDB7DEB74D
:101050002A970FB6F894DEBF0FBECDBFF82EE62E4E
:10106000CA018E010F5F1F4F2AE0F80111922A95E5
:10107000E9F74AE0B80182D6A8016E2D8F2D9FDED8
:101080002A960FB6F894DEBF0FBECDBFDF91CF9189
:101090001F910F91FF90EF90089548EE50E065E0AA
:1010A00085E28DDE4091790150917A0165E070E032
:1010B0008BE490E0C5CF1F920F920FB60F921124D0
:1010C0002F933F938F939F93AF93BF9380913B0157
:1010D00090913C01A0913D01B0913E0130913A01C7
:1010E00023E0230F2D3768F126E8230F0296A11D78
:1010F000B11D20933A0180933B0190933C01A09352
:101100003D01B0933E0180913F0190914001A0913B
:101110004101B09142010196A11DB11D80933F0193
:1011200090934001A0934101B0934201BF91AF91D0
:101130009F918F913F912F910F900FBE0F901F9015
:1011400018950196A11DB11DD4CF1F920F920FB615
:101150000F9211242F933F934F935F936F937F933D
:101160008F939F93AF93BF93EF93FF93809143012E
:1011700090914401892B29F0E0914301F0914401C1
:101180000995FF91EF91BF91AF919F918F917F91C1
:101190006F915F914F913F912F910F900FBE0F90E4
:1011A0001F9018951F920F920FB60F9211242F9334
:1011B0003F934F935F936F937F938F939F93AF93DF
:1011C000BF93EF93FF9380916301811118C08091C9
:1011D0004501909146011816190614F50197909350
:1011E00046018093450181E080936301DEDA6093DC
:1011F0005F01709360018093610190936201FF91A0
:10120000EF91BF91AF919F918F917F916F915F917E
:101210004F913F912F910F900FBE0F901F901895F7
:1012200083E090E0DCCFCF93DF93CDB7DEB7299793
:101230000FB6F894DEBF0FBECDBF83E08ABD83BF7B
:10124000789489B7826089BF80E48CBD8FEF8DBDB3
:1012500087EC80BF87E886B982E087BB81E085BBE9
:101260008BB780628BBF7894F2E0EF2EF12C19DE01
:1012700001DE4CE650E062E084E0A1DD48E750E0AA
:1012800064E080E09CDD4CE461E080E044DE4CE41E
:1012900063E080E040DE10E000E023E030E03C83EB
:1012A0002B836B8184E559DB70DBD12CC12CF801D9
:1012B000E958F94F84912EDB0F5F1F4F8B819C8182
:1012C0008330910511F0059739F496E1C916D104E0
:1012D0001CF0E3E2CE2ED12CEFEFCE1ADE0AF2E2C2
:1012E000CF16D10424F32FDB2B813C812F5F3F4F9E
:1012F0003C832B8326303105A1F645E850E066E0BB
:1013000080E05DDD41E950E067E080E058DD60EBC2
:1013100074E080E090E01FDA48DA1B012C0180E0E5
:1013200073DE019709F0B7C240DA621973098409C4
:101330009509613D7740810591058CF382E064DE7B
:10134000019709F08FC260E090E080E052D560E044
:1013500081E090E04ED540EA50E060E088E02FDD8B
:1013600081E08B8380E050DE0197E1F3FB81F11196
:101370004AC468EE73E080E090E0EDD992DD7ADD5A
:1013800010927A0110927901F0927801E09277013F
:1013900081E090E090937601809375011092740142
:1013A00010927301109272011092710126E930E0DF
:1013B0003093700120936F01F0926E01E0926D0105
:1013C0008FB7F894E2EAF7E0F0934401E093430129
:1013D0008FBF85B78C7F816085BF8BB780648BBFE3
:1013E0002BDAEFD9009177011091780117FD85C3B1
:1013F00080916C01883308F44BC0E3D91DDA209149
:101400007501309176012F5F3F4F3C832B833093E2
:101410007601209375012330310519F0253031050F
:1014200031F40F5F1F4F1093780100937701809183
:101430006D0190916E01833091052CF4019690938B
:101440006E0180936D0180916F01909170018333E3
:1014500091052CF049979093700180936F010ADDFC
:101460004BEC50E061E085E2AADC4B815C8161E0FD
:1014700070E08BE490E0E4DD41E463E083E24BDD87
:101480000CDE64EC79E080E090E065D9F3DC82DA90
:1014900080914C0190914D01019690934D01809364
:1014A0004C0120916F0130917001821793071CF15C
:1014B00010924D0110924C0180916D0190916E013E
:1014C00040E0E42FF0E0E817F907ACF4EE0FFF1F5F
:1014D000DF01A25BBE4F2D913C911197232B09F0A8
:1014E000DCC1EC59FE4F80E4808380E1818381E0A0
:1014F00090E08D939C938EE491E09F838E8364E6CD
:10150000262E61E0362E810119861886EE81FF8134
:1015100081919191FF83EE83019709F054C0488433
:101520005984440C551C9201295A3E4F3C832B830D
:10153000F901808191818130910509F4CAC10CF0D3
:10154000AEC1892B09F4CEC18091730190917401D1
:10155000019690937401809373010597ACF080918C
:1015600054018111198280914A0190914B01873970
:10157000910534F08091490131E08327809349013E
:101580001092740110927301C2018C599E4F6C012C
:101590004C018B0C911CF40160808981860D808345
:1015A000F8016181808159D9019709F0A5C1F40141
:1015B00060828DD324E030E040E050E041D4EB8104
:1015C000FC8171836083288539852F5F3F4F398780
:1015D00028870E5F1F4F2330310509F097CF809188
:1015E0007101909172010196909372018093710143
:1015F0000397ECF08091550190915601892B09F0E9
:10160000B3C18091540121E030E030935601209322
:10161000550190E064E670E05AD4BC0160577E4FFB
:1016200084E190E0BFDC1092720110927101809110
:1016300054018823E1F080914A0190914B01019679
:1016400090934B0180934A01883C910584F010925D
:10165000540110924B0110924A01109249011092CC
:101660007401109273011092720110927101009135
:101670005D0110915E011093480100934701809134
:1016800045019091460190935E0180935D01813008
:10169000910509F4C6C10CF06EC1892B09F48DC106
:1016A00080915D0190915E018130910509F40BC23A
:1016B0000CF0D0C1892B09F4E4C1E4E6F1E095E136
:1016C00024E68181811110C238E331832083329670
:1016D00081E0EC36F807A9F7D12C1C821B8280919F
:1016E0006A0190E0F101208130E0AC0147505109DE
:1016F000241735070CF447C00796821793070CF49C
:1017000042C080916B0190E0218130E0AC014750F4
:10171000510924173507BCF10796821793079CF1EE
:1017200080915401882309F4E5C1EB81FC81E859DB
:10173000FF4F8081F1018083EB81FC81EC59FF4FE9
:101740008081F1018183EB81FC81EE0FFF1FE25B61
:10175000FE4F118210820CEB12E0B8018EE190E096
:1017600021DC02531109083C1105B9F78091790178
:1017700090917A010A9690937A0180937901109260
:101780004D0110924C012B813C812F5F3F4F3C83D8
:101790002B8332E0230E311C8B819C818330910599
:1017A00009F09DCFDD20D9F190935E0180935D011A
:1017B00081E090E09093560180935501EBD81C8214
:1017C0001B826B817C8182E390E0ECDBEB81FC810E
:1017D000F296FC83EB83E43FF14099F710925601B7
:1017E00010925501D7D86B817C8182E390E0DADBDF
:1017F0008B819C81C2969C838B83883E934099F712
:1018000060EB74E080E090E0A6D780917701909142
:10181000780101979093780180937701D2D78091D6
:1018200063018130E9F4C1D7AB01BC0180915F0154
:1018300090916001A0916101B0916201C496A11DD7
:10184000B11D84179507A607B70750F482E0DCDBCB
:10185000892B31F480E0D8DB892B11F410926301DD
:1018600099D8C0CD80917E0181110BC081E0809319
:101870007E0143EB50E060E080E2A1DA91E09B83DF
:1018800071CD10927E014EEB50E060E08FE197DA6F
:10189000E1E0EB8367CD1B8265CD4F5F12CE8230D6
:1018A000910569F0039709F04FCE42E0742EA12C08
:1018B0003FEF3A83BB24B3948FEF898345CEF1E0A9
:1018C000FA8377247394AA24A394B12C2FEF29834D
:1018D0003BCE91E09A83E1E0E983712CA12CBB24FB
:1018E000B39432CEF1E0F98333E0732EAA24A394AB
:1018F0002FEF2A83B12C28CE23E0622E1D828A2C62
:10190000912CC80CD91CF6018081FA818F0FF60149
:101910008083F80161818081A0D7019711F4F1E003
:10192000FD836A946110EFCF2D81211111C0CFD1B9
:1019300024E630E040E050E083D263337105810556
:10194000910534F0872D90E0EB81FC8191838083B9
:10195000F201EC59FE4FE80DF91D8A816DEFAED210
:101960009081890F80832FCE1092560110925501DD
:1019700064EA71E055CE82309105D1F1039709F008
:101980008FCED0906B016FEF6D0D60936B018091E6
:101990006A0163D7019721F410935E0100935D0102
:1019A000288539852150310939872887232B49F724
:1019B000D394D394D0926B0173CED0906A0181E01E
:1019C0008D0D80936A0160916B0147D7019721F4D7
:1019D00010935E0100935D01888599850197998731
:1019E0008887892B51F7DA94DA94D0926A0158CE1D
:1019F000D0906A018FEF8D0D80936A0160916B0129
:101A00002CD7019721F410935E0100935D01E885C6
:101A1000F9853197F987E887EF2B51F7D394D39461
:101A2000E4CFD0906B0161E06D0D60936B0180910C
:101A30006A0113D7019721F410935E0100935D01B1
:101A400088859985019799878887892B51F7DA943A
:101A5000DA94B0CF8230910529F1039709F02DCEA9
:101A600030916B013B83632F615060936B018091D8
:101A70006A01F3D6019709F020CE8B8180936B0128
:101A80001CCE90916A019B83892F8F5F80936A019E
:101A900060916B01E2D6019709F00FCEEB81E093E4
:101AA0006A010BCEF0916A01FB838F2F81508093E6
:101AB0006A0160916B01D1D6019709F0FECD2B81AF
:101AC00020936A01FACD90916B019B83692F6F5F20
:101AD00060936B0180916A01C0D6019709F0EDCD4A
:101AE000EB81E0936B01E9CD883308F4F0CD1182EE
:101AF0009083EDCDDD24D39446CE90E080E071D18B
:101B0000282F30E0922F88279C838B8390937D0130
:101B100080937C0181E090E064D1EB81FC81E82B33
:101B2000F0937D01E0937C0110927B01609179013B
:101B300070917A01E617F7077CF470937D0160934A
:101B40007C0181E090E055D160917A0190E080E0E5
:101B500050D181E080937B018DD940E661E08BE03C
:101B6000DAD940E663E08BE0D6D942ED50E062E09E
:101B70008BE025D992DA80917B0181110EC043EE72
:101B800050E067E085E11BD940917C0150917D01D7
:101B900067E070E088E590E053DA6CED75E080E096
:101BA00090E0D9D580917B01882369F163D940E623
:101BB00061E08BE0B0D940E663E08BE0ACD94FEE5A
:101BC00050E062E08AE0FBD840917C0150917D01B9
:101BD00065E070E082E390E033DA2CEB32E03C83A6
:101BE0002B836B817C818EE190E0DCD98B819C81A1
:101BF000C2979C838B83883C910599F76CED75E0C7
:101C000080E090E0A8D536D98EEA29D9379885B7F3
:101C1000877E806185BF85B7806285BF85B780621A
:101C200085BF889585B78F7D85BF85B78F7D85BF3B
:101C3000379A8FEA14D91BCB8F929F92AF92BF92A3
:101C4000CF92DF92EF92FF92CF93DF93EC01688106
:101C500079818A819B81611571058105910521F446
:101C600064E279ED8BE597E02DE133EF41E050E060
:101C7000E7D049015A0127EA31E440E050E0C7D0FB
:101C80006B017C012CEE34EF4FEF5FEFC501B40127
:101C9000BED0C60ED71EE81EF91EF7FE06C081E0B4
:101CA000C81AD108E10880E8F80AC882D982EA8215
:101CB000FB82C701B6019F77DF91CF91FF90EF9034
:101CC000DF90CF90BF90AF909F908F9008958F92AC
:101CD0009F92AF92BF92CF92DF92EF92FF9260916C
:101CE00060007091610080916200909163006115C5
:101CF00071058105910521F464E279ED8BE597E0AA
:101D00002DE133EF41E050E09BD049015A0127EA31
:101D100031E440E050E07BD06B017C012CEE34EFED
:101D20004FEF5FEFC501B40172D0C60ED71EE81E9B
:101D3000F91EF7FE06C081E0C81AD108E10880E864
:101D4000F80AC0926000D0926100E0926200F092C6
:101D50006300C701B6019F77FF90EF90DF90CF90AF
:101D6000BF90AF909F908F900895609360007093A4
:101D7000610080936200909363000895BB274A300E
:101D800031F4992322F4BDE2909581959F4F01C0D3
:101D9000BB27FB015527AA27880F991FAA1FA41745
:101DA00010F0A41B83955051B9F7A05DAA3308F039
:101DB000A95DA193009779F7B111B1931192CB016D
:101DC00000C0DC01FC01672F71917723E1F73297A6
:101DD00004C07C916D9370836291AE17BF07C8F306
:101DE0000895E199FECF9FBB8EBBE09A99278DB3F2
:101DF0000895262FE199FECF1CBA9FBB8EBB2DBB49
:101E00000FB6F894E29AE19A0FBE01960895EE2774
:101E1000FF27AA27BB2708C0A20FB31FE41FF51F87
:101E2000220F331F441F551F969587957795679509
:101E300098F37040A9F7009799F7BD01CF01089575
:101E4000052E97FB16F400940FD057FD05D014D043
:101E500007FC02D046F408C0509540953095219576
:101E60003F4F4F4F5F4F08959095809570956195C6
:101E70007F4F8F4F9F4F0895A1E21A2EAA1BBB1BC5
:101E8000FD010DC0AA1FBB1FEE1FFF1FA217B30746
:101E9000E407F50720F0A21BB30BE40BF50B661F5C
:101EA000771F881F991F1A9469F760957095809520
:101EB00090959B01AC01BD01CF010895002480FDE8
:101EC000060E660F11F08695D1F7802D0895002437
:101ED000552704C0080E591F880F991F009729F035
:101EE00076956795B8F37105B9F7802D952F08950C
:041EF000F894FFCF94
:101EF400010000001C1C1C2842374D375020412093
:101F0400432D4D2041204E00616E6479206A616347
:101F14006B736F6E00696E737069726564206279A9
:101F240000776562626F67676C65732E636F6D001F
:101F34002D484947482053434F5245205245534565
:101F4400542D002D2D204D555445202D2D002D2090
:101F5400534F554E44204F4E202D004C4556454C72
:101F64003A00472041204D204520204F205620454F
:101F7400205200484947482053434F52453A0020D5
:101F84004E455720484947482053434F5245200067
:00000001FF
